{
  "contractName": "Card",
  "abi": [
    {
      "inputs": [],
      "stateMutability": "nonpayable",
      "type": "constructor"
    },
    {
      "anonymous": false,
      "inputs": [
        {
          "indexed": true,
          "internalType": "address",
          "name": "owner",
          "type": "address"
        },
        {
          "indexed": true,
          "internalType": "address",
          "name": "approved",
          "type": "address"
        },
        {
          "indexed": true,
          "internalType": "uint256",
          "name": "tokenId",
          "type": "uint256"
        }
      ],
      "name": "Approval",
      "type": "event"
    },
    {
      "anonymous": false,
      "inputs": [
        {
          "indexed": true,
          "internalType": "address",
          "name": "owner",
          "type": "address"
        },
        {
          "indexed": true,
          "internalType": "address",
          "name": "operator",
          "type": "address"
        },
        {
          "indexed": false,
          "internalType": "bool",
          "name": "approved",
          "type": "bool"
        }
      ],
      "name": "ApprovalForAll",
      "type": "event"
    },
    {
      "anonymous": false,
      "inputs": [
        {
          "indexed": true,
          "internalType": "address",
          "name": "from",
          "type": "address"
        },
        {
          "indexed": true,
          "internalType": "address",
          "name": "to",
          "type": "address"
        },
        {
          "indexed": true,
          "internalType": "uint256",
          "name": "tokenId",
          "type": "uint256"
        }
      ],
      "name": "Transfer",
      "type": "event"
    },
    {
      "inputs": [
        {
          "internalType": "uint256",
          "name": "",
          "type": "uint256"
        }
      ],
      "name": "_creatureExists",
      "outputs": [
        {
          "internalType": "string",
          "name": "name",
          "type": "string"
        },
        {
          "internalType": "string",
          "name": "bio",
          "type": "string"
        },
        {
          "internalType": "string",
          "name": "imageURI",
          "type": "string"
        },
        {
          "internalType": "uint256",
          "name": "attackPoints",
          "type": "uint256"
        },
        {
          "internalType": "uint256",
          "name": "defensePoints",
          "type": "uint256"
        },
        {
          "internalType": "string",
          "name": "specialMove",
          "type": "string"
        }
      ],
      "stateMutability": "view",
      "type": "function"
    },
    {
      "inputs": [],
      "name": "_id",
      "outputs": [
        {
          "internalType": "uint256",
          "name": "",
          "type": "uint256"
        }
      ],
      "stateMutability": "view",
      "type": "function"
    },
    {
      "inputs": [
        {
          "internalType": "address",
          "name": "",
          "type": "address"
        },
        {
          "internalType": "uint256",
          "name": "",
          "type": "uint256"
        }
      ],
      "name": "_ownedTokens",
      "outputs": [
        {
          "internalType": "uint256",
          "name": "",
          "type": "uint256"
        }
      ],
      "stateMutability": "view",
      "type": "function"
    },
    {
      "inputs": [
        {
          "internalType": "address",
          "name": "to",
          "type": "address"
        },
        {
          "internalType": "uint256",
          "name": "tokenId",
          "type": "uint256"
        }
      ],
      "name": "approve",
      "outputs": [],
      "stateMutability": "nonpayable",
      "type": "function"
    },
    {
      "inputs": [
        {
          "internalType": "address",
          "name": "owner",
          "type": "address"
        }
      ],
      "name": "balanceOf",
      "outputs": [
        {
          "internalType": "uint256",
          "name": "",
          "type": "uint256"
        }
      ],
      "stateMutability": "view",
      "type": "function"
    },
    {
      "inputs": [
        {
          "internalType": "uint256",
          "name": "",
          "type": "uint256"
        }
      ],
      "name": "creatures",
      "outputs": [
        {
          "internalType": "string",
          "name": "name",
          "type": "string"
        },
        {
          "internalType": "string",
          "name": "bio",
          "type": "string"
        },
        {
          "internalType": "string",
          "name": "imageURI",
          "type": "string"
        },
        {
          "internalType": "uint256",
          "name": "attackPoints",
          "type": "uint256"
        },
        {
          "internalType": "uint256",
          "name": "defensePoints",
          "type": "uint256"
        },
        {
          "internalType": "string",
          "name": "specialMove",
          "type": "string"
        }
      ],
      "stateMutability": "view",
      "type": "function"
    },
    {
      "inputs": [
        {
          "internalType": "uint256",
          "name": "tokenId",
          "type": "uint256"
        }
      ],
      "name": "getApproved",
      "outputs": [
        {
          "internalType": "address",
          "name": "",
          "type": "address"
        }
      ],
      "stateMutability": "view",
      "type": "function"
    },
    {
      "inputs": [
        {
          "internalType": "address",
          "name": "owner",
          "type": "address"
        },
        {
          "internalType": "address",
          "name": "operator",
          "type": "address"
        }
      ],
      "name": "isApprovedForAll",
      "outputs": [
        {
          "internalType": "bool",
          "name": "",
          "type": "bool"
        }
      ],
      "stateMutability": "view",
      "type": "function"
    },
    {
      "inputs": [],
      "name": "name",
      "outputs": [
        {
          "internalType": "string",
          "name": "",
          "type": "string"
        }
      ],
      "stateMutability": "view",
      "type": "function"
    },
    {
      "inputs": [
        {
          "internalType": "uint256",
          "name": "tokenId",
          "type": "uint256"
        }
      ],
      "name": "ownerOf",
      "outputs": [
        {
          "internalType": "address",
          "name": "",
          "type": "address"
        }
      ],
      "stateMutability": "view",
      "type": "function"
    },
    {
      "inputs": [
        {
          "internalType": "address",
          "name": "from",
          "type": "address"
        },
        {
          "internalType": "address",
          "name": "to",
          "type": "address"
        },
        {
          "internalType": "uint256",
          "name": "tokenId",
          "type": "uint256"
        }
      ],
      "name": "safeTransferFrom",
      "outputs": [],
      "stateMutability": "nonpayable",
      "type": "function"
    },
    {
      "inputs": [
        {
          "internalType": "address",
          "name": "from",
          "type": "address"
        },
        {
          "internalType": "address",
          "name": "to",
          "type": "address"
        },
        {
          "internalType": "uint256",
          "name": "tokenId",
          "type": "uint256"
        },
        {
          "internalType": "bytes",
          "name": "_data",
          "type": "bytes"
        }
      ],
      "name": "safeTransferFrom",
      "outputs": [],
      "stateMutability": "nonpayable",
      "type": "function"
    },
    {
      "inputs": [
        {
          "internalType": "address",
          "name": "operator",
          "type": "address"
        },
        {
          "internalType": "bool",
          "name": "approved",
          "type": "bool"
        }
      ],
      "name": "setApprovalForAll",
      "outputs": [],
      "stateMutability": "nonpayable",
      "type": "function"
    },
    {
      "inputs": [
        {
          "internalType": "bytes4",
          "name": "interfaceId",
          "type": "bytes4"
        }
      ],
      "name": "supportsInterface",
      "outputs": [
        {
          "internalType": "bool",
          "name": "",
          "type": "bool"
        }
      ],
      "stateMutability": "view",
      "type": "function"
    },
    {
      "inputs": [],
      "name": "symbol",
      "outputs": [
        {
          "internalType": "string",
          "name": "",
          "type": "string"
        }
      ],
      "stateMutability": "view",
      "type": "function"
    },
    {
      "inputs": [
        {
          "internalType": "uint256",
          "name": "tokenId",
          "type": "uint256"
        }
      ],
      "name": "tokenURI",
      "outputs": [
        {
          "internalType": "string",
          "name": "",
          "type": "string"
        }
      ],
      "stateMutability": "view",
      "type": "function"
    },
    {
      "inputs": [
        {
          "internalType": "address",
          "name": "from",
          "type": "address"
        },
        {
          "internalType": "address",
          "name": "to",
          "type": "address"
        },
        {
          "internalType": "uint256",
          "name": "tokenId",
          "type": "uint256"
        }
      ],
      "name": "transferFrom",
      "outputs": [],
      "stateMutability": "nonpayable",
      "type": "function"
    },
    {
      "inputs": [
        {
          "internalType": "string",
          "name": "name",
          "type": "string"
        },
        {
          "internalType": "string",
          "name": "bio",
          "type": "string"
        },
        {
          "internalType": "string",
          "name": "imageURI",
          "type": "string"
        },
        {
          "internalType": "uint256",
          "name": "attackPoints",
          "type": "uint256"
        },
        {
          "internalType": "uint256",
          "name": "defensePoints",
          "type": "uint256"
        },
        {
          "internalType": "string",
          "name": "specialMove",
          "type": "string"
        }
      ],
      "name": "mint",
      "outputs": [],
      "stateMutability": "nonpayable",
      "type": "function"
    }
  ],
  "bytecode": "0x608060405260006008553480156200001657600080fd5b506040518060400160405280600481526020017f43617264000000000000000000000000000000000000000000000000000000008152506040518060400160405280600481526020017f434152440000000000000000000000000000000000000000000000000000000081525081600090805190602001906200009b929190620000bd565b508060019080519060200190620000b4929190620000bd565b505050620001d2565b828054620000cb906200016d565b90600052602060002090601f016020900481019282620000ef57600085556200013b565b82601f106200010a57805160ff19168380011785556200013b565b828001600101855582156200013b579182015b828111156200013a5782518255916020019190600101906200011d565b5b5090506200014a91906200014e565b5090565b5b80821115620001695760008160009055506001016200014f565b5090565b600060028204905060018216806200018657607f821691505b602082108114156200019d576200019c620001a3565b5b50919050565b7f4e487b7100000000000000000000000000000000000000000000000000000000600052602260045260246000fd5b61307f80620001e26000396000f3fe608060405234801561001057600080fd5b50600436106101165760003560e01c80636dc26c97116100a25780639de30ad8116100715780639de30ad81461030a578063a22cb4651461033f578063b88d4fde1461035b578063c87b56dd14610377578063e985e9c5146103a757610116565b80636dc26c971461026b57806370a08231146102875780638f8930da146102b757806395d89b41146102ec57610116565b8063095ea7b3116100e9578063095ea7b3146101b757806323b872dd146101d357806342842e0e146101ef5780634f3c5f061461020b5780636352211e1461023b57610116565b806301ffc9a71461011b578063051802371461014b57806306fdde0314610169578063081812fc14610187575b600080fd5b610135600480360381019061013091906120ea565b6103d7565b6040516101429190612593565b60405180910390f35b6101536104b9565b604051610160919061280d565b60405180910390f35b6101716104bf565b60405161017e91906125ae565b60405180910390f35b6101a1600480360381019061019c9190612225565b610551565b6040516101ae919061252c565b60405180910390f35b6101d160048036038101906101cc91906120ae565b6105d6565b005b6101ed60048036038101906101e89190611fa8565b6106ee565b005b61020960048036038101906102049190611fa8565b61074e565b005b610225600480360381019061022091906120ae565b61076e565b604051610232919061280d565b60405180910390f35b61025560048036038101906102509190612225565b610793565b604051610262919061252c565b60405180910390f35b6102856004803603810190610280919061213c565b610845565b005b6102a1600480360381019061029c9190611f43565b610962565b6040516102ae919061280d565b60405180910390f35b6102d160048036038101906102cc9190612225565b610a1a565b6040516102e3969594939291906125d0565b60405180910390f35b6102f4610c86565b60405161030191906125ae565b60405180910390f35b610324600480360381019061031f9190612225565b610d18565b604051610336969594939291906125d0565b60405180910390f35b61035960048036038101906103549190612072565b610f74565b005b61037560048036038101906103709190611ff7565b6110f5565b005b610391600480360381019061038c9190612225565b611157565b60405161039e91906125ae565b60405180910390f35b6103c160048036038101906103bc9190611f6c565b6111fe565b6040516103ce9190612593565b60405180910390f35b60007f80ac58cd000000000000000000000000000000000000000000000000000000007bffffffffffffffffffffffffffffffffffffffffffffffffffffffff1916827bffffffffffffffffffffffffffffffffffffffffffffffffffffffff191614806104a257507f5b5e139f000000000000000000000000000000000000000000000000000000007bffffffffffffffffffffffffffffffffffffffffffffffffffffffff1916827bffffffffffffffffffffffffffffffffffffffffffffffffffffffff1916145b806104b257506104b182611292565b5b9050919050565b60085481565b6060600080546104ce90612a63565b80601f01602080910402602001604051908101604052809291908181526020018280546104fa90612a63565b80156105475780601f1061051c57610100808354040283529160200191610547565b820191906000526020600020905b81548152906001019060200180831161052a57829003601f168201915b5050505050905090565b600061055c826112fc565b61059b576040517f08c379a00000000000000000000000000000000000000000000000000000000081526004016105929061276d565b60405180910390fd5b6004600083815260200190815260200160002060009054906101000a900473ffffffffffffffffffffffffffffffffffffffff169050919050565b60006105e182610793565b90508073ffffffffffffffffffffffffffffffffffffffff168373ffffffffffffffffffffffffffffffffffffffff161415610652576040517f08c379a0000000000000000000000000000000000000000000000000000000008152600401610649906127cd565b60405180910390fd5b8073ffffffffffffffffffffffffffffffffffffffff16610671611368565b73ffffffffffffffffffffffffffffffffffffffff1614806106a0575061069f8161069a611368565b6111fe565b5b6106df576040517f08c379a00000000000000000000000000000000000000000000000000000000081526004016106d6906126ed565b60405180910390fd5b6106e98383611370565b505050565b6106ff6106f9611368565b82611429565b61073e576040517f08c379a0000000000000000000000000000000000000000000000000000000008152600401610735906127ed565b60405180910390fd5b610749838383611507565b505050565b610769838383604051806020016040528060008152506110f5565b505050565b6006602052816000526040600020602052806000526040600020600091509150505481565b6000806002600084815260200190815260200160002060009054906101000a900473ffffffffffffffffffffffffffffffffffffffff169050600073ffffffffffffffffffffffffffffffffffffffff168173ffffffffffffffffffffffffffffffffffffffff16141561083c576040517f08c379a00000000000000000000000000000000000000000000000000000000081526004016108339061272d565b60405180910390fd5b80915050919050565b60006040518060c00160405280888152602001878152602001868152602001858152602001848152602001838152509050600981908060018154018082558091505060019003906000526020600020906006020160009091909190915060008201518160000190805190602001906108be929190611d67565b5060208201518160010190805190602001906108db929190611d67565b5060408201518160020190805190602001906108f8929190611d67565b50606082015181600301556080820151816004015560a0820151816005019080519060200190610929929190611d67565b50505061093833600854611763565b61094433600854611931565b600160085461095391906128f2565b60088190555050505050505050565b60008073ffffffffffffffffffffffffffffffffffffffff168273ffffffffffffffffffffffffffffffffffffffff1614156109d3576040517f08c379a00000000000000000000000000000000000000000000000000000000081526004016109ca9061270d565b60405180910390fd5b600360008373ffffffffffffffffffffffffffffffffffffffff1673ffffffffffffffffffffffffffffffffffffffff168152602001908152602001600020549050919050565b60098181548110610a2a57600080fd5b9060005260206000209060060201600091509050806000018054610a4d90612a63565b80601f0160208091040260200160405190810160405280929190818152602001828054610a7990612a63565b8015610ac65780601f10610a9b57610100808354040283529160200191610ac6565b820191906000526020600020905b815481529060010190602001808311610aa957829003601f168201915b505050505090806001018054610adb90612a63565b80601f0160208091040260200160405190810160405280929190818152602001828054610b0790612a63565b8015610b545780601f10610b2957610100808354040283529160200191610b54565b820191906000526020600020905b815481529060010190602001808311610b3757829003601f168201915b505050505090806002018054610b6990612a63565b80601f0160208091040260200160405190810160405280929190818152602001828054610b9590612a63565b8015610be25780601f10610bb757610100808354040283529160200191610be2565b820191906000526020600020905b815481529060010190602001808311610bc557829003601f168201915b505050505090806003015490806004015490806005018054610c0390612a63565b80601f0160208091040260200160405190810160405280929190818152602001828054610c2f90612a63565b8015610c7c5780601f10610c5157610100808354040283529160200191610c7c565b820191906000526020600020905b815481529060010190602001808311610c5f57829003601f168201915b5050505050905086565b606060018054610c9590612a63565b80601f0160208091040260200160405190810160405280929190818152602001828054610cc190612a63565b8015610d0e5780601f10610ce357610100808354040283529160200191610d0e565b820191906000526020600020905b815481529060010190602001808311610cf157829003601f168201915b5050505050905090565b6007602052806000526040600020600091509050806000018054610d3b90612a63565b80601f0160208091040260200160405190810160405280929190818152602001828054610d6790612a63565b8015610db45780601f10610d8957610100808354040283529160200191610db4565b820191906000526020600020905b815481529060010190602001808311610d9757829003601f168201915b505050505090806001018054610dc990612a63565b80601f0160208091040260200160405190810160405280929190818152602001828054610df590612a63565b8015610e425780601f10610e1757610100808354040283529160200191610e42565b820191906000526020600020905b815481529060010190602001808311610e2557829003601f168201915b505050505090806002018054610e5790612a63565b80601f0160208091040260200160405190810160405280929190818152602001828054610e8390612a63565b8015610ed05780601f10610ea557610100808354040283529160200191610ed0565b820191906000526020600020905b815481529060010190602001808311610eb357829003601f168201915b505050505090806003015490806004015490806005018054610ef190612a63565b80601f0160208091040260200160405190810160405280929190818152602001828054610f1d90612a63565b8015610f6a5780601f10610f3f57610100808354040283529160200191610f6a565b820191906000526020600020905b815481529060010190602001808311610f4d57829003601f168201915b5050505050905086565b610f7c611368565b73ffffffffffffffffffffffffffffffffffffffff168273ffffffffffffffffffffffffffffffffffffffff161415610fea576040517f08c379a0000000000000000000000000000000000000000000000000000000008152600401610fe1906126ad565b60405180910390fd5b8060056000610ff7611368565b73ffffffffffffffffffffffffffffffffffffffff1673ffffffffffffffffffffffffffffffffffffffff16815260200190815260200160002060008473ffffffffffffffffffffffffffffffffffffffff1673ffffffffffffffffffffffffffffffffffffffff16815260200190815260200160002060006101000a81548160ff0219169083151502179055508173ffffffffffffffffffffffffffffffffffffffff166110a4611368565b73ffffffffffffffffffffffffffffffffffffffff167f17307eab39ab6107e8899845ad3d59bd9653f200f220920489ca2b5937696c31836040516110e99190612593565b60405180910390a35050565b611106611100611368565b83611429565b611145576040517f08c379a000000000000000000000000000000000000000000000000000000000815260040161113c906127ed565b60405180910390fd5b61115184848484611998565b50505050565b6060611162826112fc565b6111a1576040517f08c379a0000000000000000000000000000000000000000000000000000000008152600401611198906127ad565b60405180910390fd5b60006111ab6119f4565b905060008151116111cb57604051806020016040528060008152506111f6565b806111d584611a0b565b6040516020016111e6929190612508565b6040516020818303038152906040525b915050919050565b6000600560008473ffffffffffffffffffffffffffffffffffffffff1673ffffffffffffffffffffffffffffffffffffffff16815260200190815260200160002060008373ffffffffffffffffffffffffffffffffffffffff1673ffffffffffffffffffffffffffffffffffffffff16815260200190815260200160002060009054906101000a900460ff16905092915050565b60007f01ffc9a7000000000000000000000000000000000000000000000000000000007bffffffffffffffffffffffffffffffffffffffffffffffffffffffff1916827bffffffffffffffffffffffffffffffffffffffffffffffffffffffff1916149050919050565b60008073ffffffffffffffffffffffffffffffffffffffff166002600084815260200190815260200160002060009054906101000a900473ffffffffffffffffffffffffffffffffffffffff1673ffffffffffffffffffffffffffffffffffffffff1614159050919050565b600033905090565b816004600083815260200190815260200160002060006101000a81548173ffffffffffffffffffffffffffffffffffffffff021916908373ffffffffffffffffffffffffffffffffffffffff160217905550808273ffffffffffffffffffffffffffffffffffffffff166113e383610793565b73ffffffffffffffffffffffffffffffffffffffff167f8c5be1e5ebec7d5bd14f71427d1e84f3dd0314c0f7b2291e5b200ac8c7c3b92560405160405180910390a45050565b6000611434826112fc565b611473576040517f08c379a000000000000000000000000000000000000000000000000000000000815260040161146a906126cd565b60405180910390fd5b600061147e83610793565b90508073ffffffffffffffffffffffffffffffffffffffff168473ffffffffffffffffffffffffffffffffffffffff1614806114ed57508373ffffffffffffffffffffffffffffffffffffffff166114d584610551565b73ffffffffffffffffffffffffffffffffffffffff16145b806114fe57506114fd81856111fe565b5b91505092915050565b8273ffffffffffffffffffffffffffffffffffffffff1661152782610793565b73ffffffffffffffffffffffffffffffffffffffff161461157d576040517f08c379a00000000000000000000000000000000000000000000000000000000081526004016115749061278d565b60405180910390fd5b600073ffffffffffffffffffffffffffffffffffffffff168273ffffffffffffffffffffffffffffffffffffffff1614156115ed576040517f08c379a00000000000000000000000000000000000000000000000000000000081526004016115e49061268d565b60405180910390fd5b6115f8838383611bb8565b611603600082611370565b6001600360008573ffffffffffffffffffffffffffffffffffffffff1673ffffffffffffffffffffffffffffffffffffffff16815260200190815260200160002060008282546116539190612979565b925050819055506001600360008473ffffffffffffffffffffffffffffffffffffffff1673ffffffffffffffffffffffffffffffffffffffff16815260200190815260200160002060008282546116aa91906128f2565b92505081905550816002600083815260200190815260200160002060006101000a81548173ffffffffffffffffffffffffffffffffffffffff021916908373ffffffffffffffffffffffffffffffffffffffff160217905550808273ffffffffffffffffffffffffffffffffffffffff168473ffffffffffffffffffffffffffffffffffffffff167fddf252ad1be2c89b69c2b068fc378daa952ba7f163c4a11628f55a4df523b3ef60405160405180910390a4505050565b600073ffffffffffffffffffffffffffffffffffffffff168273ffffffffffffffffffffffffffffffffffffffff1614156117d3576040517f08c379a00000000000000000000000000000000000000000000000000000000081526004016117ca9061274d565b60405180910390fd5b6117dc816112fc565b1561181c576040517f08c379a00000000000000000000000000000000000000000000000000000000081526004016118139061266d565b60405180910390fd5b61182860008383611bb8565b6001600360008473ffffffffffffffffffffffffffffffffffffffff1673ffffffffffffffffffffffffffffffffffffffff168152602001908152602001600020600082825461187891906128f2565b92505081905550816002600083815260200190815260200160002060006101000a81548173ffffffffffffffffffffffffffffffffffffffff021916908373ffffffffffffffffffffffffffffffffffffffff160217905550808273ffffffffffffffffffffffffffffffffffffffff16600073ffffffffffffffffffffffffffffffffffffffff167fddf252ad1be2c89b69c2b068fc378daa952ba7f163c4a11628f55a4df523b3ef60405160405180910390a45050565b600061193c83610962565b905081600660008573ffffffffffffffffffffffffffffffffffffffff1673ffffffffffffffffffffffffffffffffffffffff168152602001908152602001600020600083815260200190815260200160002081905550505050565b6119a3848484611507565b6119af84848484611bbd565b6119ee576040517f08c379a00000000000000000000000000000000000000000000000000000000081526004016119e59061264d565b60405180910390fd5b50505050565b606060405180602001604052806000815250905090565b60606000821415611a53576040518060400160405280600181526020017f30000000000000000000000000000000000000000000000000000000000000008152509050611bb3565b600082905060005b60008214611a85578080611a6e90612ac6565b915050600a82611a7e9190612948565b9150611a5b565b60008167ffffffffffffffff811115611ac7577f4e487b7100000000000000000000000000000000000000000000000000000000600052604160045260246000fd5b6040519080825280601f01601f191660200182016040528015611af95781602001600182028036833780820191505090505b5090505b60008514611bac57600182611b129190612979565b9150600a85611b219190612b0f565b6030611b2d91906128f2565b60f81b818381518110611b69577f4e487b7100000000000000000000000000000000000000000000000000000000600052603260045260246000fd5b60200101907effffffffffffffffffffffffffffffffffffffffffffffffffffffffffffff1916908160001a905350600a85611ba59190612948565b9450611afd565b8093505050505b919050565b505050565b6000611bde8473ffffffffffffffffffffffffffffffffffffffff16611d54565b15611d47578373ffffffffffffffffffffffffffffffffffffffff1663150b7a02611c07611368565b8786866040518563ffffffff1660e01b8152600401611c299493929190612547565b602060405180830381600087803b158015611c4357600080fd5b505af1925050508015611c7457506040513d601f19601f82011682018060405250810190611c719190612113565b60015b611cf7573d8060008114611ca4576040519150601f19603f3d011682016040523d82523d6000602084013e611ca9565b606091505b50600081511415611cef576040517f08c379a0000000000000000000000000000000000000000000000000000000008152600401611ce69061264d565b60405180910390fd5b805181602001fd5b63150b7a0260e01b7bffffffffffffffffffffffffffffffffffffffffffffffffffffffff1916817bffffffffffffffffffffffffffffffffffffffffffffffffffffffff191614915050611d4c565b600190505b949350505050565b600080823b905060008111915050919050565b828054611d7390612a63565b90600052602060002090601f016020900481019282611d955760008555611ddc565b82601f10611dae57805160ff1916838001178555611ddc565b82800160010185558215611ddc579182015b82811115611ddb578251825591602001919060010190611dc0565b5b509050611de99190611ded565b5090565b5b80821115611e06576000816000905550600101611dee565b5090565b6000611e1d611e188461284d565b612828565b905082815260208101848484011115611e3557600080fd5b611e40848285612a21565b509392505050565b6000611e5b611e568461287e565b612828565b905082815260208101848484011115611e7357600080fd5b611e7e848285612a21565b509392505050565b600081359050611e9581612fed565b92915050565b600081359050611eaa81613004565b92915050565b600081359050611ebf8161301b565b92915050565b600081519050611ed48161301b565b92915050565b600082601f830112611eeb57600080fd5b8135611efb848260208601611e0a565b91505092915050565b600082601f830112611f1557600080fd5b8135611f25848260208601611e48565b91505092915050565b600081359050611f3d81613032565b92915050565b600060208284031215611f5557600080fd5b6000611f6384828501611e86565b91505092915050565b60008060408385031215611f7f57600080fd5b6000611f8d85828601611e86565b9250506020611f9e85828601611e86565b9150509250929050565b600080600060608486031215611fbd57600080fd5b6000611fcb86828701611e86565b9350506020611fdc86828701611e86565b9250506040611fed86828701611f2e565b9150509250925092565b6000806000806080858703121561200d57600080fd5b600061201b87828801611e86565b945050602061202c87828801611e86565b935050604061203d87828801611f2e565b925050606085013567ffffffffffffffff81111561205a57600080fd5b61206687828801611eda565b91505092959194509250565b6000806040838503121561208557600080fd5b600061209385828601611e86565b92505060206120a485828601611e9b565b9150509250929050565b600080604083850312156120c157600080fd5b60006120cf85828601611e86565b92505060206120e085828601611f2e565b9150509250929050565b6000602082840312156120fc57600080fd5b600061210a84828501611eb0565b91505092915050565b60006020828403121561212557600080fd5b600061213384828501611ec5565b91505092915050565b60008060008060008060c0878903121561215557600080fd5b600087013567ffffffffffffffff81111561216f57600080fd5b61217b89828a01611f04565b965050602087013567ffffffffffffffff81111561219857600080fd5b6121a489828a01611f04565b955050604087013567ffffffffffffffff8111156121c157600080fd5b6121cd89828a01611f04565b94505060606121de89828a01611f2e565b93505060806121ef89828a01611f2e565b92505060a087013567ffffffffffffffff81111561220c57600080fd5b61221889828a01611f04565b9150509295509295509295565b60006020828403121561223757600080fd5b600061224584828501611f2e565b91505092915050565b612257816129ad565b82525050565b612266816129bf565b82525050565b6000612277826128af565b61228181856128c5565b9350612291818560208601612a30565b61229a81612bfc565b840191505092915050565b60006122b0826128ba565b6122ba81856128d6565b93506122ca818560208601612a30565b6122d381612bfc565b840191505092915050565b60006122e9826128ba565b6122f381856128e7565b9350612303818560208601612a30565b80840191505092915050565b600061231c6032836128d6565b915061232782612c0d565b604082019050919050565b600061233f601c836128d6565b915061234a82612c5c565b602082019050919050565b60006123626024836128d6565b915061236d82612c85565b604082019050919050565b60006123856019836128d6565b915061239082612cd4565b602082019050919050565b60006123a8602c836128d6565b91506123b382612cfd565b604082019050919050565b60006123cb6038836128d6565b91506123d682612d4c565b604082019050919050565b60006123ee602a836128d6565b91506123f982612d9b565b604082019050919050565b60006124116029836128d6565b915061241c82612dea565b604082019050919050565b60006124346020836128d6565b915061243f82612e39565b602082019050919050565b6000612457602c836128d6565b915061246282612e62565b604082019050919050565b600061247a6029836128d6565b915061248582612eb1565b604082019050919050565b600061249d602f836128d6565b91506124a882612f00565b604082019050919050565b60006124c06021836128d6565b91506124cb82612f4f565b604082019050919050565b60006124e36031836128d6565b91506124ee82612f9e565b604082019050919050565b61250281612a17565b82525050565b600061251482856122de565b915061252082846122de565b91508190509392505050565b6000602082019050612541600083018461224e565b92915050565b600060808201905061255c600083018761224e565b612569602083018661224e565b61257660408301856124f9565b8181036060830152612588818461226c565b905095945050505050565b60006020820190506125a8600083018461225d565b92915050565b600060208201905081810360008301526125c881846122a5565b905092915050565b600060c08201905081810360008301526125ea81896122a5565b905081810360208301526125fe81886122a5565b9050818103604083015261261281876122a5565b905061262160608301866124f9565b61262e60808301856124f9565b81810360a083015261264081846122a5565b9050979650505050505050565b600060208201905081810360008301526126668161230f565b9050919050565b6000602082019050818103600083015261268681612332565b9050919050565b600060208201905081810360008301526126a681612355565b9050919050565b600060208201905081810360008301526126c681612378565b9050919050565b600060208201905081810360008301526126e68161239b565b9050919050565b60006020820190508181036000830152612706816123be565b9050919050565b60006020820190508181036000830152612726816123e1565b9050919050565b6000602082019050818103600083015261274681612404565b9050919050565b6000602082019050818103600083015261276681612427565b9050919050565b600060208201905081810360008301526127868161244a565b9050919050565b600060208201905081810360008301526127a68161246d565b9050919050565b600060208201905081810360008301526127c681612490565b9050919050565b600060208201905081810360008301526127e6816124b3565b9050919050565b60006020820190508181036000830152612806816124d6565b9050919050565b600060208201905061282260008301846124f9565b92915050565b6000612832612843565b905061283e8282612a95565b919050565b6000604051905090565b600067ffffffffffffffff82111561286857612867612bcd565b5b61287182612bfc565b9050602081019050919050565b600067ffffffffffffffff82111561289957612898612bcd565b5b6128a282612bfc565b9050602081019050919050565b600081519050919050565b600081519050919050565b600082825260208201905092915050565b600082825260208201905092915050565b600081905092915050565b60006128fd82612a17565b915061290883612a17565b9250827fffffffffffffffffffffffffffffffffffffffffffffffffffffffffffffffff0382111561293d5761293c612b40565b5b828201905092915050565b600061295382612a17565b915061295e83612a17565b92508261296e5761296d612b6f565b5b828204905092915050565b600061298482612a17565b915061298f83612a17565b9250828210156129a2576129a1612b40565b5b828203905092915050565b60006129b8826129f7565b9050919050565b60008115159050919050565b60007fffffffff0000000000000000000000000000000000000000000000000000000082169050919050565b600073ffffffffffffffffffffffffffffffffffffffff82169050919050565b6000819050919050565b82818337600083830152505050565b60005b83811015612a4e578082015181840152602081019050612a33565b83811115612a5d576000848401525b50505050565b60006002820490506001821680612a7b57607f821691505b60208210811415612a8f57612a8e612b9e565b5b50919050565b612a9e82612bfc565b810181811067ffffffffffffffff82111715612abd57612abc612bcd565b5b80604052505050565b6000612ad182612a17565b91507fffffffffffffffffffffffffffffffffffffffffffffffffffffffffffffffff821415612b0457612b03612b40565b5b600182019050919050565b6000612b1a82612a17565b9150612b2583612a17565b925082612b3557612b34612b6f565b5b828206905092915050565b7f4e487b7100000000000000000000000000000000000000000000000000000000600052601160045260246000fd5b7f4e487b7100000000000000000000000000000000000000000000000000000000600052601260045260246000fd5b7f4e487b7100000000000000000000000000000000000000000000000000000000600052602260045260246000fd5b7f4e487b7100000000000000000000000000000000000000000000000000000000600052604160045260246000fd5b6000601f19601f8301169050919050565b7f4552433732313a207472616e7366657220746f206e6f6e20455243373231526560008201527f63656976657220696d706c656d656e7465720000000000000000000000000000602082015250565b7f4552433732313a20746f6b656e20616c7265616479206d696e74656400000000600082015250565b7f4552433732313a207472616e7366657220746f20746865207a65726f2061646460008201527f7265737300000000000000000000000000000000000000000000000000000000602082015250565b7f4552433732313a20617070726f766520746f2063616c6c657200000000000000600082015250565b7f4552433732313a206f70657261746f7220717565727920666f72206e6f6e657860008201527f697374656e7420746f6b656e0000000000000000000000000000000000000000602082015250565b7f4552433732313a20617070726f76652063616c6c6572206973206e6f74206f7760008201527f6e6572206e6f7220617070726f76656420666f7220616c6c0000000000000000602082015250565b7f4552433732313a2062616c616e636520717565727920666f7220746865207a6560008201527f726f206164647265737300000000000000000000000000000000000000000000602082015250565b7f4552433732313a206f776e657220717565727920666f72206e6f6e657869737460008201527f656e7420746f6b656e0000000000000000000000000000000000000000000000602082015250565b7f4552433732313a206d696e7420746f20746865207a65726f2061646472657373600082015250565b7f4552433732313a20617070726f76656420717565727920666f72206e6f6e657860008201527f697374656e7420746f6b656e0000000000000000000000000000000000000000602082015250565b7f4552433732313a207472616e73666572206f6620746f6b656e2074686174206960008201527f73206e6f74206f776e0000000000000000000000000000000000000000000000602082015250565b7f4552433732314d657461646174613a2055524920717565727920666f72206e6f60008201527f6e6578697374656e7420746f6b656e0000000000000000000000000000000000602082015250565b7f4552433732313a20617070726f76616c20746f2063757272656e74206f776e6560008201527f7200000000000000000000000000000000000000000000000000000000000000602082015250565b7f4552433732313a207472616e736665722063616c6c6572206973206e6f74206f60008201527f776e6572206e6f7220617070726f766564000000000000000000000000000000602082015250565b612ff6816129ad565b811461300157600080fd5b50565b61300d816129bf565b811461301857600080fd5b50565b613024816129cb565b811461302f57600080fd5b50565b61303b81612a17565b811461304657600080fd5b5056fea26469706673582212207efac6128da6a36414f9ab42101467250c43e3c16cda695ad270fb1eb38ca9a364736f6c63430008040033",
  "immutableReferences": {},
  "source": "pragma solidity 0.8.4;\n\nimport \"@openzeppelin/contracts/token/ERC721/ERC721.sol\";\n\ncontract Card is ERC721{\n\n     struct Creature{\n        string name;\n        string bio;\n        string imageURI;\n        uint attackPoints;\n        uint defensePoints;\n        string specialMove;\n    }\n\n    mapping(address=> mapping(uint=>uint)) public _ownedTokens;\n    mapping(uint=>Creature) public _creatureExists;\n    uint public _id=0;\n    Creature[] public creatures;\n\n   \n\n    constructor() ERC721('Card',\"CARD\") {\n    }\n\n    function addTokenToOwner(address to,uint tokenID) private{\n        uint length=ERC721.balanceOf(to);\n        _ownedTokens[to][length]=tokenID;\n    }\n\n    function mint(\n    string memory name, \n    string memory bio,\n    string memory imageURI,\n    uint attackPoints,\n    uint defensePoints,\n    string memory specialMove) \n    public {\n        Creature memory what = Creature(name,bio,imageURI,attackPoints,defensePoints,specialMove);\n        creatures.push(what);\n        _mint(msg.sender, _id);\n        addTokenToOwner(msg.sender, _id);\n        _id=_id+1;\n    }\n\n}\n\n",
  "sourcePath": "/Users/kiranmanicka/Documents/NFT/src/contracts/Card.sol",
  "compiler": {
    "name": "solc",
    "version": "0.8.4+commit.c7e474f2.Emscripten.clang"
  },
  "schemaVersion": "3.4.1",
  "updatedAt": "2021-07-21T01:50:17.975Z",
  "devdoc": {
    "kind": "dev",
    "methods": {
      "approve(address,uint256)": {
        "details": "See {IERC721-approve}."
      },
      "balanceOf(address)": {
        "details": "See {IERC721-balanceOf}."
      },
      "getApproved(uint256)": {
        "details": "See {IERC721-getApproved}."
      },
      "isApprovedForAll(address,address)": {
        "details": "See {IERC721-isApprovedForAll}."
      },
      "name()": {
        "details": "See {IERC721Metadata-name}."
      },
      "ownerOf(uint256)": {
        "details": "See {IERC721-ownerOf}."
      },
      "safeTransferFrom(address,address,uint256)": {
        "details": "See {IERC721-safeTransferFrom}."
      },
      "safeTransferFrom(address,address,uint256,bytes)": {
        "details": "See {IERC721-safeTransferFrom}."
      },
      "setApprovalForAll(address,bool)": {
        "details": "See {IERC721-setApprovalForAll}."
      },
      "supportsInterface(bytes4)": {
        "details": "See {IERC165-supportsInterface}."
      },
      "symbol()": {
        "details": "See {IERC721Metadata-symbol}."
      },
      "tokenURI(uint256)": {
        "details": "See {IERC721Metadata-tokenURI}."
      },
      "transferFrom(address,address,uint256)": {
        "details": "See {IERC721-transferFrom}."
      }
    },
    "version": 1
  },
  "userdoc": {
    "kind": "user",
    "methods": {},
    "version": 1
  }
}