{
  "contractName": "Card",
  "abi": [
    {
      "inputs": [],
      "stateMutability": "nonpayable",
      "type": "constructor"
    },
    {
      "anonymous": false,
      "inputs": [
        {
          "indexed": true,
          "internalType": "address",
          "name": "owner",
          "type": "address"
        },
        {
          "indexed": true,
          "internalType": "address",
          "name": "approved",
          "type": "address"
        },
        {
          "indexed": true,
          "internalType": "uint256",
          "name": "tokenId",
          "type": "uint256"
        }
      ],
      "name": "Approval",
      "type": "event"
    },
    {
      "anonymous": false,
      "inputs": [
        {
          "indexed": true,
          "internalType": "address",
          "name": "owner",
          "type": "address"
        },
        {
          "indexed": true,
          "internalType": "address",
          "name": "operator",
          "type": "address"
        },
        {
          "indexed": false,
          "internalType": "bool",
          "name": "approved",
          "type": "bool"
        }
      ],
      "name": "ApprovalForAll",
      "type": "event"
    },
    {
      "anonymous": false,
      "inputs": [
        {
          "indexed": true,
          "internalType": "address",
          "name": "from",
          "type": "address"
        },
        {
          "indexed": true,
          "internalType": "address",
          "name": "to",
          "type": "address"
        },
        {
          "indexed": true,
          "internalType": "uint256",
          "name": "tokenId",
          "type": "uint256"
        }
      ],
      "name": "Transfer",
      "type": "event"
    },
    {
      "inputs": [],
      "name": "_id",
      "outputs": [
        {
          "internalType": "uint256",
          "name": "",
          "type": "uint256"
        }
      ],
      "stateMutability": "view",
      "type": "function",
      "constant": true
    },
    {
      "inputs": [
        {
          "internalType": "address",
          "name": "to",
          "type": "address"
        },
        {
          "internalType": "uint256",
          "name": "tokenId",
          "type": "uint256"
        }
      ],
      "name": "approve",
      "outputs": [],
      "stateMutability": "nonpayable",
      "type": "function"
    },
    {
      "inputs": [
        {
          "internalType": "uint256",
          "name": "",
          "type": "uint256"
        }
      ],
      "name": "battles",
      "outputs": [
        {
          "internalType": "address",
          "name": "host",
          "type": "address"
        },
        {
          "internalType": "uint256",
          "name": "hostCreature",
          "type": "uint256"
        }
      ],
      "stateMutability": "view",
      "type": "function",
      "constant": true
    },
    {
      "inputs": [
        {
          "internalType": "uint256",
          "name": "",
          "type": "uint256"
        }
      ],
      "name": "creatures",
      "outputs": [
        {
          "internalType": "string",
          "name": "name",
          "type": "string"
        },
        {
          "internalType": "string",
          "name": "bio",
          "type": "string"
        },
        {
          "internalType": "string",
          "name": "imageURI",
          "type": "string"
        },
        {
          "internalType": "uint256",
          "name": "attackPoints",
          "type": "uint256"
        },
        {
          "internalType": "uint256",
          "name": "defensePoints",
          "type": "uint256"
        },
        {
          "internalType": "string",
          "name": "specialMove",
          "type": "string"
        },
        {
          "internalType": "uint256",
          "name": "value",
          "type": "uint256"
        }
      ],
      "stateMutability": "view",
      "type": "function",
      "constant": true
    },
    {
      "inputs": [
        {
          "internalType": "uint256",
          "name": "tokenId",
          "type": "uint256"
        }
      ],
      "name": "getApproved",
      "outputs": [
        {
          "internalType": "address",
          "name": "",
          "type": "address"
        }
      ],
      "stateMutability": "view",
      "type": "function",
      "constant": true
    },
    {
      "inputs": [
        {
          "internalType": "address",
          "name": "owner",
          "type": "address"
        },
        {
          "internalType": "address",
          "name": "operator",
          "type": "address"
        }
      ],
      "name": "isApprovedForAll",
      "outputs": [
        {
          "internalType": "bool",
          "name": "",
          "type": "bool"
        }
      ],
      "stateMutability": "view",
      "type": "function",
      "constant": true
    },
    {
      "inputs": [],
      "name": "name",
      "outputs": [
        {
          "internalType": "string",
          "name": "",
          "type": "string"
        }
      ],
      "stateMutability": "view",
      "type": "function",
      "constant": true
    },
    {
      "inputs": [
        {
          "internalType": "address",
          "name": "from",
          "type": "address"
        },
        {
          "internalType": "address",
          "name": "to",
          "type": "address"
        },
        {
          "internalType": "uint256",
          "name": "tokenId",
          "type": "uint256"
        }
      ],
      "name": "safeTransferFrom",
      "outputs": [],
      "stateMutability": "nonpayable",
      "type": "function"
    },
    {
      "inputs": [
        {
          "internalType": "address",
          "name": "from",
          "type": "address"
        },
        {
          "internalType": "address",
          "name": "to",
          "type": "address"
        },
        {
          "internalType": "uint256",
          "name": "tokenId",
          "type": "uint256"
        },
        {
          "internalType": "bytes",
          "name": "_data",
          "type": "bytes"
        }
      ],
      "name": "safeTransferFrom",
      "outputs": [],
      "stateMutability": "nonpayable",
      "type": "function"
    },
    {
      "inputs": [
        {
          "internalType": "address",
          "name": "operator",
          "type": "address"
        },
        {
          "internalType": "bool",
          "name": "approved",
          "type": "bool"
        }
      ],
      "name": "setApprovalForAll",
      "outputs": [],
      "stateMutability": "nonpayable",
      "type": "function"
    },
    {
      "inputs": [
        {
          "internalType": "bytes4",
          "name": "interfaceId",
          "type": "bytes4"
        }
      ],
      "name": "supportsInterface",
      "outputs": [
        {
          "internalType": "bool",
          "name": "",
          "type": "bool"
        }
      ],
      "stateMutability": "view",
      "type": "function",
      "constant": true
    },
    {
      "inputs": [],
      "name": "symbol",
      "outputs": [
        {
          "internalType": "string",
          "name": "",
          "type": "string"
        }
      ],
      "stateMutability": "view",
      "type": "function",
      "constant": true
    },
    {
      "inputs": [
        {
          "internalType": "uint256",
          "name": "tokenId",
          "type": "uint256"
        }
      ],
      "name": "tokenURI",
      "outputs": [
        {
          "internalType": "string",
          "name": "",
          "type": "string"
        }
      ],
      "stateMutability": "view",
      "type": "function",
      "constant": true
    },
    {
      "inputs": [
        {
          "internalType": "address",
          "name": "from",
          "type": "address"
        },
        {
          "internalType": "address",
          "name": "to",
          "type": "address"
        },
        {
          "internalType": "uint256",
          "name": "tokenId",
          "type": "uint256"
        }
      ],
      "name": "transferFrom",
      "outputs": [],
      "stateMutability": "nonpayable",
      "type": "function"
    },
    {
      "inputs": [
        {
          "internalType": "string",
          "name": "name",
          "type": "string"
        },
        {
          "internalType": "string",
          "name": "bio",
          "type": "string"
        },
        {
          "internalType": "string",
          "name": "imageURI",
          "type": "string"
        },
        {
          "internalType": "uint256",
          "name": "attackPoints",
          "type": "uint256"
        },
        {
          "internalType": "uint256",
          "name": "defensePoints",
          "type": "uint256"
        },
        {
          "internalType": "string",
          "name": "specialMove",
          "type": "string"
        }
      ],
      "name": "mint",
      "outputs": [],
      "stateMutability": "nonpayable",
      "type": "function"
    },
    {
      "inputs": [
        {
          "internalType": "uint256",
          "name": "tokenID",
          "type": "uint256"
        }
      ],
      "name": "ownerOf",
      "outputs": [
        {
          "internalType": "address",
          "name": "",
          "type": "address"
        }
      ],
      "stateMutability": "view",
      "type": "function",
      "constant": true
    },
    {
      "inputs": [
        {
          "internalType": "address",
          "name": "from",
          "type": "address"
        }
      ],
      "name": "balanceOf",
      "outputs": [
        {
          "internalType": "uint256",
          "name": "",
          "type": "uint256"
        }
      ],
      "stateMutability": "view",
      "type": "function",
      "constant": true
    },
    {
      "inputs": [
        {
          "internalType": "address",
          "name": "from",
          "type": "address"
        },
        {
          "internalType": "address",
          "name": "to",
          "type": "address"
        },
        {
          "internalType": "uint256",
          "name": "tokenID",
          "type": "uint256"
        }
      ],
      "name": "transferToken",
      "outputs": [],
      "stateMutability": "nonpayable",
      "type": "function"
    },
    {
      "inputs": [
        {
          "internalType": "address",
          "name": "to",
          "type": "address"
        }
      ],
      "name": "getTokensByAddress",
      "outputs": [
        {
          "internalType": "uint256[]",
          "name": "",
          "type": "uint256[]"
        }
      ],
      "stateMutability": "view",
      "type": "function",
      "constant": true
    },
    {
      "inputs": [
        {
          "internalType": "uint256",
          "name": "tokenID",
          "type": "uint256"
        }
      ],
      "name": "createBattle",
      "outputs": [],
      "stateMutability": "nonpayable",
      "type": "function"
    },
    {
      "inputs": [
        {
          "internalType": "uint256",
          "name": "battleID",
          "type": "uint256"
        },
        {
          "internalType": "uint256",
          "name": "tokenID",
          "type": "uint256"
        }
      ],
      "name": "joinBattle",
      "outputs": [
        {
          "internalType": "uint256",
          "name": "",
          "type": "uint256"
        }
      ],
      "stateMutability": "nonpayable",
      "type": "function"
    }
  ],
  "bytecode": "0x608060405260006006553480156200001657600080fd5b506040518060400160405280600481526020017f43617264000000000000000000000000000000000000000000000000000000008152506040518060400160405280600481526020017f434152440000000000000000000000000000000000000000000000000000000081525081600090805190602001906200009b929190620000bd565b508060019080519060200190620000b4929190620000bd565b505050620001d2565b828054620000cb906200016d565b90600052602060002090601f016020900481019282620000ef57600085556200013b565b82601f106200010a57805160ff19168380011785556200013b565b828001600101855582156200013b579182015b828111156200013a5782518255916020019190600101906200011d565b5b5090506200014a91906200014e565b5090565b5b80821115620001695760008160009055506001016200014f565b5090565b600060028204905060018216806200018657607f821691505b602082108114156200019d576200019c620001a3565b5b50919050565b7f4e487b7100000000000000000000000000000000000000000000000000000000600052602260045260246000fd5b61358780620001e26000396000f3fe608060405234801561001057600080fd5b50600436106101375760003560e01c80636dc26c97116100b8578063a22cb4651161007c578063a22cb46514610379578063b88d4fde14610395578063c87b56dd146103b1578063e44dba4f146103e1578063e985e9c514610411578063f5537ede1461044157610137565b80636dc26c97146102bd57806370a08231146102d95780638f8930da1461030957806394d44f121461033f57806395d89b411461035b57610137565b8063095ea7b3116100ff578063095ea7b31461020857806323b872dd1461022457806342842e0e14610240578063606d2e961461025c5780636352211e1461028d57610137565b806301ffc9a71461013c578063051802371461016c57806306fdde031461018a57806307ca3645146101a8578063081812fc146101d8575b600080fd5b610156600480360381019061015191906124c2565b61045d565b6040516101639190612ab9565b60405180910390f35b61017461053f565b6040516101819190612d21565b60405180910390f35b610192610545565b60405161019f9190612ad4565b60405180910390f35b6101c260048036038101906101bd919061231b565b6105d7565b6040516101cf9190612a97565b60405180910390f35b6101f260048036038101906101ed91906125fd565b610717565b6040516101ff9190612a07565b60405180910390f35b610222600480360381019061021d9190612486565b61079c565b005b61023e60048036038101906102399190612380565b6108b4565b005b61025a60048036038101906102559190612380565b610914565b005b610276600480360381019061027191906125fd565b610934565b604051610284929190612a6e565b60405180910390f35b6102a760048036038101906102a291906125fd565b610988565b6040516102b49190612a07565b60405180910390f35b6102d760048036038101906102d29190612514565b6109c5565b005b6102f360048036038101906102ee919061231b565b610b98565b6040516103009190612d21565b60405180910390f35b610323600480360381019061031e91906125fd565b610be1565b6040516103369796959493929190612af6565b60405180910390f35b610359600480360381019061035491906125fd565b610e53565b005b610363610f0d565b6040516103709190612ad4565b60405180910390f35b610393600480360381019061038e919061244a565b610f9f565b005b6103af60048036038101906103aa91906123cf565b611120565b005b6103cb60048036038101906103c691906125fd565b611182565b6040516103d89190612ad4565b60405180910390f35b6103fb60048036038101906103f69190612626565b611229565b6040516104089190612d21565b60405180910390f35b61042b60048036038101906104269190612344565b611486565b6040516104389190612ab9565b60405180910390f35b61045b60048036038101906104569190612380565b61151a565b005b60007f80ac58cd000000000000000000000000000000000000000000000000000000007bffffffffffffffffffffffffffffffffffffffffffffffffffffffff1916827bffffffffffffffffffffffffffffffffffffffffffffffffffffffff1916148061052857507f5b5e139f000000000000000000000000000000000000000000000000000000007bffffffffffffffffffffffffffffffffffffffffffffffffffffffff1916827bffffffffffffffffffffffffffffffffffffffffffffffffffffffff1916145b8061053857506105378261161f565b5b9050919050565b60065481565b60606000805461055490612fb0565b80601f016020809104026020016040519081016040528092919081815260200182805461058090612fb0565b80156105cd5780601f106105a2576101008083540402835291602001916105cd565b820191906000526020600020905b8154815290600101906020018083116105b057829003601f168201915b5050505050905090565b606060006105e483610b98565b905060008167ffffffffffffffff811115610628577f4e487b7100000000000000000000000000000000000000000000000000000000600052604160045260246000fd5b6040519080825280602002602001820160405280156106565781602001602082028036833780820191505090505b5090506000805b60065481101561070b578573ffffffffffffffffffffffffffffffffffffffff1661068782610988565b73ffffffffffffffffffffffffffffffffffffffff1614156106f857808383815181106106dd577f4e487b7100000000000000000000000000000000000000000000000000000000600052603260045260246000fd5b60200260200101818152505081806106f490613013565b9250505b808061070390613013565b91505061065d565b50819350505050919050565b600061072282611689565b610761576040517f08c379a000000000000000000000000000000000000000000000000000000000815260040161075890612c81565b60405180910390fd5b6004600083815260200190815260200160002060009054906101000a900473ffffffffffffffffffffffffffffffffffffffff169050919050565b60006107a7826116f5565b90508073ffffffffffffffffffffffffffffffffffffffff168373ffffffffffffffffffffffffffffffffffffffff161415610818576040517f08c379a000000000000000000000000000000000000000000000000000000000815260040161080f90612ce1565b60405180910390fd5b8073ffffffffffffffffffffffffffffffffffffffff166108376117a7565b73ffffffffffffffffffffffffffffffffffffffff1614806108665750610865816108606117a7565b611486565b5b6108a5576040517f08c379a000000000000000000000000000000000000000000000000000000000815260040161089c90612c21565b60405180910390fd5b6108af83836117af565b505050565b6108c56108bf6117a7565b82611868565b610904576040517f08c379a00000000000000000000000000000000000000000000000000000000081526004016108fb90612d01565b60405180910390fd5b61090f838383611946565b505050565b61092f83838360405180602001604052806000815250611120565b505050565b6008818154811061094457600080fd5b90600052602060002090600202016000915090508060000160009054906101000a900473ffffffffffffffffffffffffffffffffffffffff16908060010154905082565b60006009600083815260200190815260200160002060009054906101000a900473ffffffffffffffffffffffffffffffffffffffff169050919050565b60006040518060e0016040528088815260200187815260200186815260200185815260200184815260200183815260200166071afd498d0000815250905060078190806001815401808255809150506001900390600052602060002090600702016000909190919091506000820151816000019080519060200190610a4b92919061213f565b506020820151816001019080519060200190610a6892919061213f565b506040820151816002019080519060200190610a8592919061213f565b50606082015181600301556080820151816004015560a0820151816005019080519060200190610ab692919061213f565b5060c082015181600601555050610acf33600654611ba2565b6001600a60003373ffffffffffffffffffffffffffffffffffffffff1673ffffffffffffffffffffffffffffffffffffffff1681526020019081526020016000206000828254610b1f9190612e3f565b925050819055503360096000600654815260200190815260200160002060006101000a81548173ffffffffffffffffffffffffffffffffffffffff021916908373ffffffffffffffffffffffffffffffffffffffff1602179055506001600654610b899190612e3f565b60068190555050505050505050565b6000600a60008373ffffffffffffffffffffffffffffffffffffffff1673ffffffffffffffffffffffffffffffffffffffff168152602001908152602001600020549050919050565b60078181548110610bf157600080fd5b9060005260206000209060070201600091509050806000018054610c1490612fb0565b80601f0160208091040260200160405190810160405280929190818152602001828054610c4090612fb0565b8015610c8d5780601f10610c6257610100808354040283529160200191610c8d565b820191906000526020600020905b815481529060010190602001808311610c7057829003601f168201915b505050505090806001018054610ca290612fb0565b80601f0160208091040260200160405190810160405280929190818152602001828054610cce90612fb0565b8015610d1b5780601f10610cf057610100808354040283529160200191610d1b565b820191906000526020600020905b815481529060010190602001808311610cfe57829003601f168201915b505050505090806002018054610d3090612fb0565b80601f0160208091040260200160405190810160405280929190818152602001828054610d5c90612fb0565b8015610da95780601f10610d7e57610100808354040283529160200191610da9565b820191906000526020600020905b815481529060010190602001808311610d8c57829003601f168201915b505050505090806003015490806004015490806005018054610dca90612fb0565b80601f0160208091040260200160405190810160405280929190818152602001828054610df690612fb0565b8015610e435780601f10610e1857610100808354040283529160200191610e43565b820191906000526020600020905b815481529060010190602001808311610e2657829003601f168201915b5050505050908060060154905087565b60006040518060400160405280610e6984610988565b73ffffffffffffffffffffffffffffffffffffffff168152602001838152509050600881908060018154018082558091505060019003906000526020600020906002020160009091909190915060008201518160000160006101000a81548173ffffffffffffffffffffffffffffffffffffffff021916908373ffffffffffffffffffffffffffffffffffffffff1602179055506020820151816001015550505050565b606060018054610f1c90612fb0565b80601f0160208091040260200160405190810160405280929190818152602001828054610f4890612fb0565b8015610f955780601f10610f6a57610100808354040283529160200191610f95565b820191906000526020600020905b815481529060010190602001808311610f7857829003601f168201915b5050505050905090565b610fa76117a7565b73ffffffffffffffffffffffffffffffffffffffff168273ffffffffffffffffffffffffffffffffffffffff161415611015576040517f08c379a000000000000000000000000000000000000000000000000000000000815260040161100c90612be1565b60405180910390fd5b80600560006110226117a7565b73ffffffffffffffffffffffffffffffffffffffff1673ffffffffffffffffffffffffffffffffffffffff16815260200190815260200160002060008473ffffffffffffffffffffffffffffffffffffffff1673ffffffffffffffffffffffffffffffffffffffff16815260200190815260200160002060006101000a81548160ff0219169083151502179055508173ffffffffffffffffffffffffffffffffffffffff166110cf6117a7565b73ffffffffffffffffffffffffffffffffffffffff167f17307eab39ab6107e8899845ad3d59bd9653f200f220920489ca2b5937696c31836040516111149190612ab9565b60405180910390a35050565b61113161112b6117a7565b83611868565b611170576040517f08c379a000000000000000000000000000000000000000000000000000000000815260040161116790612d01565b60405180910390fd5b61117c84848484611d70565b50505050565b606061118d82611689565b6111cc576040517f08c379a00000000000000000000000000000000000000000000000000000000081526004016111c390612cc1565b60405180910390fd5b60006111d6611dcc565b905060008151116111f65760405180602001604052806000815250611221565b8061120084611de3565b604051602001611211929190612995565b6040516020818303038152906040525b915050919050565b60008060088481548110611266577f4e487b7100000000000000000000000000000000000000000000000000000000600052603260045260246000fd5b90600052602060002090600202016040518060400160405290816000820160009054906101000a900473ffffffffffffffffffffffffffffffffffffffff1673ffffffffffffffffffffffffffffffffffffffff1673ffffffffffffffffffffffffffffffffffffffff168152602001600182015481525050905060006007848154811061131d577f4e487b7100000000000000000000000000000000000000000000000000000000600052603260045260246000fd5b906000526020600020906007020160060154600783602001518154811061136d577f4e487b7100000000000000000000000000000000000000000000000000000000600052603260045260246000fd5b9060005260206000209060070201600601546113899190612e3f565b600785815481106113c3577f4e487b7100000000000000000000000000000000000000000000000000000000600052603260045260246000fd5b9060005260206000209060070201600601546113df9190612e95565b905060006064868642446040516020016113fc94939291906129b9565b6040516020818303038152906040528051906020012060001c61141f9190613066565b905081811161145a5761144b6114388460200151610988565b61144187610988565b8560200151611946565b82602001519350505050611480565b61147961146686610988565b6114738560200151610988565b87611946565b8493505050505b92915050565b6000600560008473ffffffffffffffffffffffffffffffffffffffff1673ffffffffffffffffffffffffffffffffffffffff16815260200190815260200160002060008373ffffffffffffffffffffffffffffffffffffffff1673ffffffffffffffffffffffffffffffffffffffff16815260200190815260200160002060009054906101000a900460ff16905092915050565b6001600a60008573ffffffffffffffffffffffffffffffffffffffff1673ffffffffffffffffffffffffffffffffffffffff168152602001908152602001600020600082825461156a9190612ec6565b925050819055506001600a60008473ffffffffffffffffffffffffffffffffffffffff1673ffffffffffffffffffffffffffffffffffffffff16815260200190815260200160002060008282546115c19190612e3f565b92505081905550816009600083815260200190815260200160002060006101000a81548173ffffffffffffffffffffffffffffffffffffffff021916908373ffffffffffffffffffffffffffffffffffffffff160217905550505050565b60007f01ffc9a7000000000000000000000000000000000000000000000000000000007bffffffffffffffffffffffffffffffffffffffffffffffffffffffff1916827bffffffffffffffffffffffffffffffffffffffffffffffffffffffff1916149050919050565b60008073ffffffffffffffffffffffffffffffffffffffff166002600084815260200190815260200160002060009054906101000a900473ffffffffffffffffffffffffffffffffffffffff1673ffffffffffffffffffffffffffffffffffffffff1614159050919050565b6000806002600084815260200190815260200160002060009054906101000a900473ffffffffffffffffffffffffffffffffffffffff169050600073ffffffffffffffffffffffffffffffffffffffff168173ffffffffffffffffffffffffffffffffffffffff16141561179e576040517f08c379a000000000000000000000000000000000000000000000000000000000815260040161179590612c41565b60405180910390fd5b80915050919050565b600033905090565b816004600083815260200190815260200160002060006101000a81548173ffffffffffffffffffffffffffffffffffffffff021916908373ffffffffffffffffffffffffffffffffffffffff160217905550808273ffffffffffffffffffffffffffffffffffffffff16611822836116f5565b73ffffffffffffffffffffffffffffffffffffffff167f8c5be1e5ebec7d5bd14f71427d1e84f3dd0314c0f7b2291e5b200ac8c7c3b92560405160405180910390a45050565b600061187382611689565b6118b2576040517f08c379a00000000000000000000000000000000000000000000000000000000081526004016118a990612c01565b60405180910390fd5b60006118bd836116f5565b90508073ffffffffffffffffffffffffffffffffffffffff168473ffffffffffffffffffffffffffffffffffffffff16148061192c57508373ffffffffffffffffffffffffffffffffffffffff1661191484610717565b73ffffffffffffffffffffffffffffffffffffffff16145b8061193d575061193c8185611486565b5b91505092915050565b8273ffffffffffffffffffffffffffffffffffffffff16611966826116f5565b73ffffffffffffffffffffffffffffffffffffffff16146119bc576040517f08c379a00000000000000000000000000000000000000000000000000000000081526004016119b390612ca1565b60405180910390fd5b600073ffffffffffffffffffffffffffffffffffffffff168273ffffffffffffffffffffffffffffffffffffffff161415611a2c576040517f08c379a0000000000000000000000000000000000000000000000000000000008152600401611a2390612bc1565b60405180910390fd5b611a37838383611f90565b611a426000826117af565b6001600360008573ffffffffffffffffffffffffffffffffffffffff1673ffffffffffffffffffffffffffffffffffffffff1681526020019081526020016000206000828254611a929190612ec6565b925050819055506001600360008473ffffffffffffffffffffffffffffffffffffffff1673ffffffffffffffffffffffffffffffffffffffff1681526020019081526020016000206000828254611ae99190612e3f565b92505081905550816002600083815260200190815260200160002060006101000a81548173ffffffffffffffffffffffffffffffffffffffff021916908373ffffffffffffffffffffffffffffffffffffffff160217905550808273ffffffffffffffffffffffffffffffffffffffff168473ffffffffffffffffffffffffffffffffffffffff167fddf252ad1be2c89b69c2b068fc378daa952ba7f163c4a11628f55a4df523b3ef60405160405180910390a4505050565b600073ffffffffffffffffffffffffffffffffffffffff168273ffffffffffffffffffffffffffffffffffffffff161415611c12576040517f08c379a0000000000000000000000000000000000000000000000000000000008152600401611c0990612c61565b60405180910390fd5b611c1b81611689565b15611c5b576040517f08c379a0000000000000000000000000000000000000000000000000000000008152600401611c5290612ba1565b60405180910390fd5b611c6760008383611f90565b6001600360008473ffffffffffffffffffffffffffffffffffffffff1673ffffffffffffffffffffffffffffffffffffffff1681526020019081526020016000206000828254611cb79190612e3f565b92505081905550816002600083815260200190815260200160002060006101000a81548173ffffffffffffffffffffffffffffffffffffffff021916908373ffffffffffffffffffffffffffffffffffffffff160217905550808273ffffffffffffffffffffffffffffffffffffffff16600073ffffffffffffffffffffffffffffffffffffffff167fddf252ad1be2c89b69c2b068fc378daa952ba7f163c4a11628f55a4df523b3ef60405160405180910390a45050565b611d7b848484611946565b611d8784848484611f95565b611dc6576040517f08c379a0000000000000000000000000000000000000000000000000000000008152600401611dbd90612b81565b60405180910390fd5b50505050565b606060405180602001604052806000815250905090565b60606000821415611e2b576040518060400160405280600181526020017f30000000000000000000000000000000000000000000000000000000000000008152509050611f8b565b600082905060005b60008214611e5d578080611e4690613013565b915050600a82611e569190612e95565b9150611e33565b60008167ffffffffffffffff811115611e9f577f4e487b7100000000000000000000000000000000000000000000000000000000600052604160045260246000fd5b6040519080825280601f01601f191660200182016040528015611ed15781602001600182028036833780820191505090505b5090505b60008514611f8457600182611eea9190612ec6565b9150600a85611ef99190613066565b6030611f059190612e3f565b60f81b818381518110611f41577f4e487b7100000000000000000000000000000000000000000000000000000000600052603260045260246000fd5b60200101907effffffffffffffffffffffffffffffffffffffffffffffffffffffffffffff1916908160001a905350600a85611f7d9190612e95565b9450611ed5565b8093505050505b919050565b505050565b6000611fb68473ffffffffffffffffffffffffffffffffffffffff1661212c565b1561211f578373ffffffffffffffffffffffffffffffffffffffff1663150b7a02611fdf6117a7565b8786866040518563ffffffff1660e01b81526004016120019493929190612a22565b602060405180830381600087803b15801561201b57600080fd5b505af192505050801561204c57506040513d601f19601f8201168201806040525081019061204991906124eb565b60015b6120cf573d806000811461207c576040519150601f19603f3d011682016040523d82523d6000602084013e612081565b606091505b506000815114156120c7576040517f08c379a00000000000000000000000000000000000000000000000000000000081526004016120be90612b81565b60405180910390fd5b805181602001fd5b63150b7a0260e01b7bffffffffffffffffffffffffffffffffffffffffffffffffffffffff1916817bffffffffffffffffffffffffffffffffffffffffffffffffffffffff191614915050612124565b600190505b949350505050565b600080823b905060008111915050919050565b82805461214b90612fb0565b90600052602060002090601f01602090048101928261216d57600085556121b4565b82601f1061218657805160ff19168380011785556121b4565b828001600101855582156121b4579182015b828111156121b3578251825591602001919060010190612198565b5b5090506121c191906121c5565b5090565b5b808211156121de5760008160009055506001016121c6565b5090565b60006121f56121f084612d61565b612d3c565b90508281526020810184848401111561220d57600080fd5b612218848285612f6e565b509392505050565b600061223361222e84612d92565b612d3c565b90508281526020810184848401111561224b57600080fd5b612256848285612f6e565b509392505050565b60008135905061226d816134f5565b92915050565b6000813590506122828161350c565b92915050565b60008135905061229781613523565b92915050565b6000815190506122ac81613523565b92915050565b600082601f8301126122c357600080fd5b81356122d38482602086016121e2565b91505092915050565b600082601f8301126122ed57600080fd5b81356122fd848260208601612220565b91505092915050565b6000813590506123158161353a565b92915050565b60006020828403121561232d57600080fd5b600061233b8482850161225e565b91505092915050565b6000806040838503121561235757600080fd5b60006123658582860161225e565b92505060206123768582860161225e565b9150509250929050565b60008060006060848603121561239557600080fd5b60006123a38682870161225e565b93505060206123b48682870161225e565b92505060406123c586828701612306565b9150509250925092565b600080600080608085870312156123e557600080fd5b60006123f38782880161225e565b94505060206124048782880161225e565b935050604061241587828801612306565b925050606085013567ffffffffffffffff81111561243257600080fd5b61243e878288016122b2565b91505092959194509250565b6000806040838503121561245d57600080fd5b600061246b8582860161225e565b925050602061247c85828601612273565b9150509250929050565b6000806040838503121561249957600080fd5b60006124a78582860161225e565b92505060206124b885828601612306565b9150509250929050565b6000602082840312156124d457600080fd5b60006124e284828501612288565b91505092915050565b6000602082840312156124fd57600080fd5b600061250b8482850161229d565b91505092915050565b60008060008060008060c0878903121561252d57600080fd5b600087013567ffffffffffffffff81111561254757600080fd5b61255389828a016122dc565b965050602087013567ffffffffffffffff81111561257057600080fd5b61257c89828a016122dc565b955050604087013567ffffffffffffffff81111561259957600080fd5b6125a589828a016122dc565b94505060606125b689828a01612306565b93505060806125c789828a01612306565b92505060a087013567ffffffffffffffff8111156125e457600080fd5b6125f089828a016122dc565b9150509295509295509295565b60006020828403121561260f57600080fd5b600061261d84828501612306565b91505092915050565b6000806040838503121561263957600080fd5b600061264785828601612306565b925050602061265885828601612306565b9150509250929050565b600061266e8383612960565b60208301905092915050565b61268381612efa565b82525050565b600061269482612dd3565b61269e8185612e01565b93506126a983612dc3565b8060005b838110156126da5781516126c18882612662565b97506126cc83612df4565b9250506001810190506126ad565b5085935050505092915050565b6126f081612f0c565b82525050565b600061270182612dde565b61270b8185612e12565b935061271b818560208601612f7d565b61272481613153565b840191505092915050565b600061273a82612de9565b6127448185612e23565b9350612754818560208601612f7d565b61275d81613153565b840191505092915050565b600061277382612de9565b61277d8185612e34565b935061278d818560208601612f7d565b80840191505092915050565b60006127a6603283612e23565b91506127b182613164565b604082019050919050565b60006127c9601c83612e23565b91506127d4826131b3565b602082019050919050565b60006127ec602483612e23565b91506127f7826131dc565b604082019050919050565b600061280f601983612e23565b915061281a8261322b565b602082019050919050565b6000612832602c83612e23565b915061283d82613254565b604082019050919050565b6000612855603883612e23565b9150612860826132a3565b604082019050919050565b6000612878602983612e23565b9150612883826132f2565b604082019050919050565b600061289b602083612e23565b91506128a682613341565b602082019050919050565b60006128be602c83612e23565b91506128c98261336a565b604082019050919050565b60006128e1602983612e23565b91506128ec826133b9565b604082019050919050565b6000612904602f83612e23565b915061290f82613408565b604082019050919050565b6000612927602183612e23565b915061293282613457565b604082019050919050565b600061294a603183612e23565b9150612955826134a6565b604082019050919050565b61296981612f64565b82525050565b61297881612f64565b82525050565b61298f61298a82612f64565b61305c565b82525050565b60006129a18285612768565b91506129ad8284612768565b91508190509392505050565b60006129c5828761297e565b6020820191506129d5828661297e565b6020820191506129e5828561297e565b6020820191506129f5828461297e565b60208201915081905095945050505050565b6000602082019050612a1c600083018461267a565b92915050565b6000608082019050612a37600083018761267a565b612a44602083018661267a565b612a51604083018561296f565b8181036060830152612a6381846126f6565b905095945050505050565b6000604082019050612a83600083018561267a565b612a90602083018461296f565b9392505050565b60006020820190508181036000830152612ab18184612689565b905092915050565b6000602082019050612ace60008301846126e7565b92915050565b60006020820190508181036000830152612aee818461272f565b905092915050565b600060e0820190508181036000830152612b10818a61272f565b90508181036020830152612b24818961272f565b90508181036040830152612b38818861272f565b9050612b47606083018761296f565b612b54608083018661296f565b81810360a0830152612b66818561272f565b9050612b7560c083018461296f565b98975050505050505050565b60006020820190508181036000830152612b9a81612799565b9050919050565b60006020820190508181036000830152612bba816127bc565b9050919050565b60006020820190508181036000830152612bda816127df565b9050919050565b60006020820190508181036000830152612bfa81612802565b9050919050565b60006020820190508181036000830152612c1a81612825565b9050919050565b60006020820190508181036000830152612c3a81612848565b9050919050565b60006020820190508181036000830152612c5a8161286b565b9050919050565b60006020820190508181036000830152612c7a8161288e565b9050919050565b60006020820190508181036000830152612c9a816128b1565b9050919050565b60006020820190508181036000830152612cba816128d4565b9050919050565b60006020820190508181036000830152612cda816128f7565b9050919050565b60006020820190508181036000830152612cfa8161291a565b9050919050565b60006020820190508181036000830152612d1a8161293d565b9050919050565b6000602082019050612d36600083018461296f565b92915050565b6000612d46612d57565b9050612d528282612fe2565b919050565b6000604051905090565b600067ffffffffffffffff821115612d7c57612d7b613124565b5b612d8582613153565b9050602081019050919050565b600067ffffffffffffffff821115612dad57612dac613124565b5b612db682613153565b9050602081019050919050565b6000819050602082019050919050565b600081519050919050565b600081519050919050565b600081519050919050565b6000602082019050919050565b600082825260208201905092915050565b600082825260208201905092915050565b600082825260208201905092915050565b600081905092915050565b6000612e4a82612f64565b9150612e5583612f64565b9250827fffffffffffffffffffffffffffffffffffffffffffffffffffffffffffffffff03821115612e8a57612e89613097565b5b828201905092915050565b6000612ea082612f64565b9150612eab83612f64565b925082612ebb57612eba6130c6565b5b828204905092915050565b6000612ed182612f64565b9150612edc83612f64565b925082821015612eef57612eee613097565b5b828203905092915050565b6000612f0582612f44565b9050919050565b60008115159050919050565b60007fffffffff0000000000000000000000000000000000000000000000000000000082169050919050565b600073ffffffffffffffffffffffffffffffffffffffff82169050919050565b6000819050919050565b82818337600083830152505050565b60005b83811015612f9b578082015181840152602081019050612f80565b83811115612faa576000848401525b50505050565b60006002820490506001821680612fc857607f821691505b60208210811415612fdc57612fdb6130f5565b5b50919050565b612feb82613153565b810181811067ffffffffffffffff8211171561300a57613009613124565b5b80604052505050565b600061301e82612f64565b91507fffffffffffffffffffffffffffffffffffffffffffffffffffffffffffffffff82141561305157613050613097565b5b600182019050919050565b6000819050919050565b600061307182612f64565b915061307c83612f64565b92508261308c5761308b6130c6565b5b828206905092915050565b7f4e487b7100000000000000000000000000000000000000000000000000000000600052601160045260246000fd5b7f4e487b7100000000000000000000000000000000000000000000000000000000600052601260045260246000fd5b7f4e487b7100000000000000000000000000000000000000000000000000000000600052602260045260246000fd5b7f4e487b7100000000000000000000000000000000000000000000000000000000600052604160045260246000fd5b6000601f19601f8301169050919050565b7f4552433732313a207472616e7366657220746f206e6f6e20455243373231526560008201527f63656976657220696d706c656d656e7465720000000000000000000000000000602082015250565b7f4552433732313a20746f6b656e20616c7265616479206d696e74656400000000600082015250565b7f4552433732313a207472616e7366657220746f20746865207a65726f2061646460008201527f7265737300000000000000000000000000000000000000000000000000000000602082015250565b7f4552433732313a20617070726f766520746f2063616c6c657200000000000000600082015250565b7f4552433732313a206f70657261746f7220717565727920666f72206e6f6e657860008201527f697374656e7420746f6b656e0000000000000000000000000000000000000000602082015250565b7f4552433732313a20617070726f76652063616c6c6572206973206e6f74206f7760008201527f6e6572206e6f7220617070726f76656420666f7220616c6c0000000000000000602082015250565b7f4552433732313a206f776e657220717565727920666f72206e6f6e657869737460008201527f656e7420746f6b656e0000000000000000000000000000000000000000000000602082015250565b7f4552433732313a206d696e7420746f20746865207a65726f2061646472657373600082015250565b7f4552433732313a20617070726f76656420717565727920666f72206e6f6e657860008201527f697374656e7420746f6b656e0000000000000000000000000000000000000000602082015250565b7f4552433732313a207472616e73666572206f6620746f6b656e2074686174206960008201527f73206e6f74206f776e0000000000000000000000000000000000000000000000602082015250565b7f4552433732314d657461646174613a2055524920717565727920666f72206e6f60008201527f6e6578697374656e7420746f6b656e0000000000000000000000000000000000602082015250565b7f4552433732313a20617070726f76616c20746f2063757272656e74206f776e6560008201527f7200000000000000000000000000000000000000000000000000000000000000602082015250565b7f4552433732313a207472616e736665722063616c6c6572206973206e6f74206f60008201527f776e6572206e6f7220617070726f766564000000000000000000000000000000602082015250565b6134fe81612efa565b811461350957600080fd5b50565b61351581612f0c565b811461352057600080fd5b50565b61352c81612f18565b811461353757600080fd5b50565b61354381612f64565b811461354e57600080fd5b5056fea2646970667358221220f14e7539c6483f221ff6885f24e5b79206e02b537c66883fc0b132a6685b04b064736f6c63430008040033",
  "immutableReferences": {},
  "source": "pragma solidity 0.8.4;\n\nimport \"@openzeppelin/contracts/token/ERC721/ERC721.sol\";\n\ncontract Card is ERC721{\n\n    uint public _id=0;\n    Creature[] public creatures;\n    Battle[] public battles;\n    mapping(uint=>address) private owners;\n    mapping(address=>uint) private balance;\n    \n    struct Creature {\n        string name;\n        string bio;\n        string imageURI;\n        uint attackPoints;\n        uint defensePoints;\n        string specialMove;\n        uint value;\n    }\n    \n    struct Battle{\n        address host;\n        uint hostCreature;\n    }\n   \n\n    constructor() ERC721('Card',\"CARD\") {\n    }\n\n\n    function mint(\n    string memory name, \n    string memory bio,\n    string memory imageURI,\n    uint attackPoints,\n    uint defensePoints,\n    string memory specialMove) \n    public {\n        Creature memory what = Creature({name:name,bio:bio,imageURI:imageURI\n        ,attackPoints:attackPoints,defensePoints:defensePoints,specialMove:specialMove,value:2000000000000000});\n        creatures.push(what);\n        _mint(msg.sender, _id);\n        balance[msg.sender]+=1;\n        owners[_id]=msg.sender;\n        \n        _id=_id+1;\n    }\n    \n    function ownerOf(uint tokenID) public view override returns(address){\n        return owners[tokenID];\n    }\n    \n    function balanceOf(address from) public view override returns(uint){\n        return balance[from];\n    }\n    \n    function transferToken(address from, address to , uint tokenID) public{\n        balance[from] -= 1;\n        balance[to] += 1;\n        owners[tokenID] = to;\n    }\n    \n    function getTokensByAddress(address to) public view returns(uint [] memory){\n        uint length= balanceOf(to);\n        uint[] memory tokensFromAddress= new uint[] (length);\n        uint x=0;\n        for(uint i=0;i<_id;i++){\n            if(ownerOf(i)==to){\n                tokensFromAddress[x]=i;\n                x++;\n            }\n        }\n        return tokensFromAddress;\n    }\n\n    function createBattle(uint tokenID )public{\n        Battle memory battle= Battle({host:ownerOf(tokenID), hostCreature:tokenID});\n        battles.push(battle);\n    }\n    \n    \n    function joinBattle(uint battleID,uint tokenID) public returns(uint){\n        Battle memory battle= battles[battleID];\n        uint specialNumber= uint(creatures[tokenID].value/(creatures[battle.hostCreature].value+creatures[tokenID].value));\n        uint random = uint(keccak256(abi.encodePacked(battleID,tokenID,block.timestamp,block.difficulty)))%100;\n        if(random<=specialNumber){\n            _transfer(ownerOf(battle.hostCreature),ownerOf(tokenID),battle.hostCreature);\n            return battle.hostCreature;\n        }else{\n            _transfer(ownerOf(tokenID),ownerOf(battle.hostCreature),tokenID);\n            return tokenID;\n        }\n    }\n    \n\n}\n\n",
  "sourcePath": "/Users/kiranmanicka/Documents/NFT/src/contracts/Card.sol",
  "compiler": {
    "name": "solc",
    "version": "0.8.4+commit.c7e474f2.Emscripten.clang"
  },
  "schemaVersion": "3.4.1",
  "updatedAt": "2021-07-24T17:35:16.931Z",
  "networkType": "ethereum",
  "devdoc": {
    "kind": "dev",
    "methods": {
      "approve(address,uint256)": {
        "details": "See {IERC721-approve}."
      },
      "getApproved(uint256)": {
        "details": "See {IERC721-getApproved}."
      },
      "isApprovedForAll(address,address)": {
        "details": "See {IERC721-isApprovedForAll}."
      },
      "name()": {
        "details": "See {IERC721Metadata-name}."
      },
      "safeTransferFrom(address,address,uint256)": {
        "details": "See {IERC721-safeTransferFrom}."
      },
      "safeTransferFrom(address,address,uint256,bytes)": {
        "details": "See {IERC721-safeTransferFrom}."
      },
      "setApprovalForAll(address,bool)": {
        "details": "See {IERC721-setApprovalForAll}."
      },
      "supportsInterface(bytes4)": {
        "details": "See {IERC165-supportsInterface}."
      },
      "symbol()": {
        "details": "See {IERC721Metadata-symbol}."
      },
      "tokenURI(uint256)": {
        "details": "See {IERC721Metadata-tokenURI}."
      },
      "transferFrom(address,address,uint256)": {
        "details": "See {IERC721-transferFrom}."
      }
    },
    "version": 1
  },
  "userdoc": {
    "kind": "user",
    "methods": {},
    "version": 1
  }
}