{
  "contractName": "Card",
  "abi": [
    {
      "inputs": [],
      "stateMutability": "nonpayable",
      "type": "constructor"
    },
    {
      "anonymous": false,
      "inputs": [
        {
          "indexed": true,
          "internalType": "address",
          "name": "owner",
          "type": "address"
        },
        {
          "indexed": true,
          "internalType": "address",
          "name": "approved",
          "type": "address"
        },
        {
          "indexed": true,
          "internalType": "uint256",
          "name": "tokenId",
          "type": "uint256"
        }
      ],
      "name": "Approval",
      "type": "event"
    },
    {
      "anonymous": false,
      "inputs": [
        {
          "indexed": true,
          "internalType": "address",
          "name": "owner",
          "type": "address"
        },
        {
          "indexed": true,
          "internalType": "address",
          "name": "operator",
          "type": "address"
        },
        {
          "indexed": false,
          "internalType": "bool",
          "name": "approved",
          "type": "bool"
        }
      ],
      "name": "ApprovalForAll",
      "type": "event"
    },
    {
      "anonymous": false,
      "inputs": [
        {
          "indexed": true,
          "internalType": "address",
          "name": "from",
          "type": "address"
        },
        {
          "indexed": true,
          "internalType": "address",
          "name": "to",
          "type": "address"
        },
        {
          "indexed": true,
          "internalType": "uint256",
          "name": "tokenId",
          "type": "uint256"
        }
      ],
      "name": "Transfer",
      "type": "event"
    },
    {
      "inputs": [],
      "name": "_id",
      "outputs": [
        {
          "internalType": "uint256",
          "name": "",
          "type": "uint256"
        }
      ],
      "stateMutability": "view",
      "type": "function",
      "constant": true
    },
    {
      "inputs": [
        {
          "internalType": "address",
          "name": "to",
          "type": "address"
        },
        {
          "internalType": "uint256",
          "name": "tokenId",
          "type": "uint256"
        }
      ],
      "name": "approve",
      "outputs": [],
      "stateMutability": "nonpayable",
      "type": "function"
    },
    {
      "inputs": [
        {
          "internalType": "address",
          "name": "owner",
          "type": "address"
        }
      ],
      "name": "balanceOf",
      "outputs": [
        {
          "internalType": "uint256",
          "name": "",
          "type": "uint256"
        }
      ],
      "stateMutability": "view",
      "type": "function",
      "constant": true
    },
    {
      "inputs": [
        {
          "internalType": "uint256",
          "name": "",
          "type": "uint256"
        }
      ],
      "name": "creatures",
      "outputs": [
        {
          "internalType": "string",
          "name": "name",
          "type": "string"
        },
        {
          "internalType": "string",
          "name": "bio",
          "type": "string"
        },
        {
          "internalType": "string",
          "name": "imageURI",
          "type": "string"
        },
        {
          "internalType": "uint256",
          "name": "attackPoints",
          "type": "uint256"
        },
        {
          "internalType": "uint256",
          "name": "defensePoints",
          "type": "uint256"
        },
        {
          "internalType": "string",
          "name": "specialMove",
          "type": "string"
        }
      ],
      "stateMutability": "view",
      "type": "function",
      "constant": true
    },
    {
      "inputs": [
        {
          "internalType": "uint256",
          "name": "tokenId",
          "type": "uint256"
        }
      ],
      "name": "getApproved",
      "outputs": [
        {
          "internalType": "address",
          "name": "",
          "type": "address"
        }
      ],
      "stateMutability": "view",
      "type": "function",
      "constant": true
    },
    {
      "inputs": [
        {
          "internalType": "address",
          "name": "owner",
          "type": "address"
        },
        {
          "internalType": "address",
          "name": "operator",
          "type": "address"
        }
      ],
      "name": "isApprovedForAll",
      "outputs": [
        {
          "internalType": "bool",
          "name": "",
          "type": "bool"
        }
      ],
      "stateMutability": "view",
      "type": "function",
      "constant": true
    },
    {
      "inputs": [],
      "name": "name",
      "outputs": [
        {
          "internalType": "string",
          "name": "",
          "type": "string"
        }
      ],
      "stateMutability": "view",
      "type": "function",
      "constant": true
    },
    {
      "inputs": [
        {
          "internalType": "uint256",
          "name": "tokenId",
          "type": "uint256"
        }
      ],
      "name": "ownerOf",
      "outputs": [
        {
          "internalType": "address",
          "name": "",
          "type": "address"
        }
      ],
      "stateMutability": "view",
      "type": "function",
      "constant": true
    },
    {
      "inputs": [
        {
          "internalType": "address",
          "name": "from",
          "type": "address"
        },
        {
          "internalType": "address",
          "name": "to",
          "type": "address"
        },
        {
          "internalType": "uint256",
          "name": "tokenId",
          "type": "uint256"
        }
      ],
      "name": "safeTransferFrom",
      "outputs": [],
      "stateMutability": "nonpayable",
      "type": "function"
    },
    {
      "inputs": [
        {
          "internalType": "address",
          "name": "from",
          "type": "address"
        },
        {
          "internalType": "address",
          "name": "to",
          "type": "address"
        },
        {
          "internalType": "uint256",
          "name": "tokenId",
          "type": "uint256"
        },
        {
          "internalType": "bytes",
          "name": "_data",
          "type": "bytes"
        }
      ],
      "name": "safeTransferFrom",
      "outputs": [],
      "stateMutability": "nonpayable",
      "type": "function"
    },
    {
      "inputs": [
        {
          "internalType": "address",
          "name": "operator",
          "type": "address"
        },
        {
          "internalType": "bool",
          "name": "approved",
          "type": "bool"
        }
      ],
      "name": "setApprovalForAll",
      "outputs": [],
      "stateMutability": "nonpayable",
      "type": "function"
    },
    {
      "inputs": [
        {
          "internalType": "bytes4",
          "name": "interfaceId",
          "type": "bytes4"
        }
      ],
      "name": "supportsInterface",
      "outputs": [
        {
          "internalType": "bool",
          "name": "",
          "type": "bool"
        }
      ],
      "stateMutability": "view",
      "type": "function",
      "constant": true
    },
    {
      "inputs": [],
      "name": "symbol",
      "outputs": [
        {
          "internalType": "string",
          "name": "",
          "type": "string"
        }
      ],
      "stateMutability": "view",
      "type": "function",
      "constant": true
    },
    {
      "inputs": [
        {
          "internalType": "uint256",
          "name": "tokenId",
          "type": "uint256"
        }
      ],
      "name": "tokenURI",
      "outputs": [
        {
          "internalType": "string",
          "name": "",
          "type": "string"
        }
      ],
      "stateMutability": "view",
      "type": "function",
      "constant": true
    },
    {
      "inputs": [
        {
          "internalType": "address",
          "name": "from",
          "type": "address"
        },
        {
          "internalType": "address",
          "name": "to",
          "type": "address"
        },
        {
          "internalType": "uint256",
          "name": "tokenId",
          "type": "uint256"
        }
      ],
      "name": "transferFrom",
      "outputs": [],
      "stateMutability": "nonpayable",
      "type": "function"
    },
    {
      "inputs": [
        {
          "internalType": "string",
          "name": "name",
          "type": "string"
        },
        {
          "internalType": "string",
          "name": "bio",
          "type": "string"
        },
        {
          "internalType": "string",
          "name": "imageURI",
          "type": "string"
        },
        {
          "internalType": "uint256",
          "name": "attackPoints",
          "type": "uint256"
        },
        {
          "internalType": "uint256",
          "name": "defensePoints",
          "type": "uint256"
        },
        {
          "internalType": "string",
          "name": "specialMove",
          "type": "string"
        }
      ],
      "name": "mint",
      "outputs": [],
      "stateMutability": "nonpayable",
      "type": "function"
    },
    {
      "inputs": [
        {
          "internalType": "address",
          "name": "to",
          "type": "address"
        }
      ],
      "name": "getTokensByAddress",
      "outputs": [
        {
          "internalType": "uint256[]",
          "name": "",
          "type": "uint256[]"
        }
      ],
      "stateMutability": "view",
      "type": "function",
      "constant": true
    }
  ],
  "bytecode": "0x608060405260006006553480156200001657600080fd5b506040518060400160405280600481526020017f43617264000000000000000000000000000000000000000000000000000000008152506040518060400160405280600481526020017f434152440000000000000000000000000000000000000000000000000000000081525081600090805190602001906200009b929190620000bd565b508060019080519060200190620000b4929190620000bd565b505050620001d2565b828054620000cb906200016d565b90600052602060002090601f016020900481019282620000ef57600085556200013b565b82601f106200010a57805160ff19168380011785556200013b565b828001600101855582156200013b579182015b828111156200013a5782518255916020019190600101906200011d565b5b5090506200014a91906200014e565b5090565b5b80821115620001695760008160009055506001016200014f565b5090565b600060028204905060018216806200018657607f821691505b602082108114156200019d576200019c620001a3565b5b50919050565b7f4e487b7100000000000000000000000000000000000000000000000000000000600052602260045260246000fd5b612fbf80620001e26000396000f3fe608060405234801561001057600080fd5b506004361061010b5760003560e01c80636352211e116100a257806395d89b411161007157806395d89b41146102e1578063a22cb465146102ff578063b88d4fde1461031b578063c87b56dd14610337578063e985e9c5146103675761010b565b80636352211e146102305780636dc26c971461026057806370a082311461027c5780638f8930da146102ac5761010b565b8063081812fc116100de578063081812fc146101ac578063095ea7b3146101dc57806323b872dd146101f857806342842e0e146102145761010b565b806301ffc9a714610110578063051802371461014057806306fdde031461015e57806307ca36451461017c575b600080fd5b61012a60048036038101906101259190611f4a565b610397565b604051610137919061249a565b60405180910390f35b610148610479565b6040516101559190612714565b60405180910390f35b61016661047f565b60405161017391906124b5565b60405180910390f35b61019660048036038101906101919190611da3565b610511565b6040516101a39190612478565b60405180910390f35b6101c660048036038101906101c19190612085565b610651565b6040516101d39190612411565b60405180910390f35b6101f660048036038101906101f19190611f0e565b6106d6565b005b610212600480360381019061020d9190611e08565b6107ee565b005b61022e60048036038101906102299190611e08565b61084e565b005b61024a60048036038101906102459190612085565b61086e565b6040516102579190612411565b60405180910390f35b61027a60048036038101906102759190611f9c565b610920565b005b61029660048036038101906102919190611da3565b610a85565b6040516102a39190612714565b60405180910390f35b6102c660048036038101906102c19190612085565b610b3d565b6040516102d8969594939291906124d7565b60405180910390f35b6102e9610da9565b6040516102f691906124b5565b60405180910390f35b61031960048036038101906103149190611ed2565b610e3b565b005b61033560048036038101906103309190611e57565b610fbc565b005b610351600480360381019061034c9190612085565b61101e565b60405161035e91906124b5565b60405180910390f35b610381600480360381019061037c9190611dcc565b6110c5565b60405161038e919061249a565b60405180910390f35b60007f80ac58cd000000000000000000000000000000000000000000000000000000007bffffffffffffffffffffffffffffffffffffffffffffffffffffffff1916827bffffffffffffffffffffffffffffffffffffffffffffffffffffffff1916148061046257507f5b5e139f000000000000000000000000000000000000000000000000000000007bffffffffffffffffffffffffffffffffffffffffffffffffffffffff1916827bffffffffffffffffffffffffffffffffffffffffffffffffffffffff1916145b80610472575061047182611159565b5b9050919050565b60065481565b60606000805461048e906129a3565b80601f01602080910402602001604051908101604052809291908181526020018280546104ba906129a3565b80156105075780601f106104dc57610100808354040283529160200191610507565b820191906000526020600020905b8154815290600101906020018083116104ea57829003601f168201915b5050505050905090565b6060600061051e83610a85565b905060008167ffffffffffffffff811115610562577f4e487b7100000000000000000000000000000000000000000000000000000000600052604160045260246000fd5b6040519080825280602002602001820160405280156105905781602001602082028036833780820191505090505b5090506000805b600654811015610645578573ffffffffffffffffffffffffffffffffffffffff166105c18261086e565b73ffffffffffffffffffffffffffffffffffffffff1614156106325780838381518110610617577f4e487b7100000000000000000000000000000000000000000000000000000000600052603260045260246000fd5b602002602001018181525050818061062e90612a06565b9250505b808061063d90612a06565b915050610597565b50819350505050919050565b600061065c826111c3565b61069b576040517f08c379a000000000000000000000000000000000000000000000000000000000815260040161069290612674565b60405180910390fd5b6004600083815260200190815260200160002060009054906101000a900473ffffffffffffffffffffffffffffffffffffffff169050919050565b60006106e18261086e565b90508073ffffffffffffffffffffffffffffffffffffffff168373ffffffffffffffffffffffffffffffffffffffff161415610752576040517f08c379a0000000000000000000000000000000000000000000000000000000008152600401610749906126d4565b60405180910390fd5b8073ffffffffffffffffffffffffffffffffffffffff1661077161122f565b73ffffffffffffffffffffffffffffffffffffffff1614806107a0575061079f8161079a61122f565b6110c5565b5b6107df576040517f08c379a00000000000000000000000000000000000000000000000000000000081526004016107d6906125f4565b60405180910390fd5b6107e98383611237565b505050565b6107ff6107f961122f565b826112f0565b61083e576040517f08c379a0000000000000000000000000000000000000000000000000000000008152600401610835906126f4565b60405180910390fd5b6108498383836113ce565b505050565b61086983838360405180602001604052806000815250610fbc565b505050565b6000806002600084815260200190815260200160002060009054906101000a900473ffffffffffffffffffffffffffffffffffffffff169050600073ffffffffffffffffffffffffffffffffffffffff168173ffffffffffffffffffffffffffffffffffffffff161415610917576040517f08c379a000000000000000000000000000000000000000000000000000000000815260040161090e90612634565b60405180910390fd5b80915050919050565b60006040518060c0016040528088815260200187815260200186815260200185815260200184815260200183815250905060078190806001815401808255809150506001900390600052602060002090600602016000909190919091506000820151816000019080519060200190610999929190611bc7565b5060208201518160010190805190602001906109b6929190611bc7565b5060408201518160020190805190602001906109d3929190611bc7565b50606082015181600301556080820151816004015560a0820151816005019080519060200190610a04929190611bc7565b505050610a133360065461162a565b3360086000600654815260200190815260200160002060006101000a81548173ffffffffffffffffffffffffffffffffffffffff021916908373ffffffffffffffffffffffffffffffffffffffff1602179055506001600654610a769190612832565b60068190555050505050505050565b60008073ffffffffffffffffffffffffffffffffffffffff168273ffffffffffffffffffffffffffffffffffffffff161415610af6576040517f08c379a0000000000000000000000000000000000000000000000000000000008152600401610aed90612614565b60405180910390fd5b600360008373ffffffffffffffffffffffffffffffffffffffff1673ffffffffffffffffffffffffffffffffffffffff168152602001908152602001600020549050919050565b60078181548110610b4d57600080fd5b9060005260206000209060060201600091509050806000018054610b70906129a3565b80601f0160208091040260200160405190810160405280929190818152602001828054610b9c906129a3565b8015610be95780601f10610bbe57610100808354040283529160200191610be9565b820191906000526020600020905b815481529060010190602001808311610bcc57829003601f168201915b505050505090806001018054610bfe906129a3565b80601f0160208091040260200160405190810160405280929190818152602001828054610c2a906129a3565b8015610c775780601f10610c4c57610100808354040283529160200191610c77565b820191906000526020600020905b815481529060010190602001808311610c5a57829003601f168201915b505050505090806002018054610c8c906129a3565b80601f0160208091040260200160405190810160405280929190818152602001828054610cb8906129a3565b8015610d055780601f10610cda57610100808354040283529160200191610d05565b820191906000526020600020905b815481529060010190602001808311610ce857829003601f168201915b505050505090806003015490806004015490806005018054610d26906129a3565b80601f0160208091040260200160405190810160405280929190818152602001828054610d52906129a3565b8015610d9f5780601f10610d7457610100808354040283529160200191610d9f565b820191906000526020600020905b815481529060010190602001808311610d8257829003601f168201915b5050505050905086565b606060018054610db8906129a3565b80601f0160208091040260200160405190810160405280929190818152602001828054610de4906129a3565b8015610e315780601f10610e0657610100808354040283529160200191610e31565b820191906000526020600020905b815481529060010190602001808311610e1457829003601f168201915b5050505050905090565b610e4361122f565b73ffffffffffffffffffffffffffffffffffffffff168273ffffffffffffffffffffffffffffffffffffffff161415610eb1576040517f08c379a0000000000000000000000000000000000000000000000000000000008152600401610ea8906125b4565b60405180910390fd5b8060056000610ebe61122f565b73ffffffffffffffffffffffffffffffffffffffff1673ffffffffffffffffffffffffffffffffffffffff16815260200190815260200160002060008473ffffffffffffffffffffffffffffffffffffffff1673ffffffffffffffffffffffffffffffffffffffff16815260200190815260200160002060006101000a81548160ff0219169083151502179055508173ffffffffffffffffffffffffffffffffffffffff16610f6b61122f565b73ffffffffffffffffffffffffffffffffffffffff167f17307eab39ab6107e8899845ad3d59bd9653f200f220920489ca2b5937696c3183604051610fb0919061249a565b60405180910390a35050565b610fcd610fc761122f565b836112f0565b61100c576040517f08c379a0000000000000000000000000000000000000000000000000000000008152600401611003906126f4565b60405180910390fd5b611018848484846117f8565b50505050565b6060611029826111c3565b611068576040517f08c379a000000000000000000000000000000000000000000000000000000000815260040161105f906126b4565b60405180910390fd5b6000611072611854565b9050600081511161109257604051806020016040528060008152506110bd565b8061109c8461186b565b6040516020016110ad9291906123ed565b6040516020818303038152906040525b915050919050565b6000600560008473ffffffffffffffffffffffffffffffffffffffff1673ffffffffffffffffffffffffffffffffffffffff16815260200190815260200160002060008373ffffffffffffffffffffffffffffffffffffffff1673ffffffffffffffffffffffffffffffffffffffff16815260200190815260200160002060009054906101000a900460ff16905092915050565b60007f01ffc9a7000000000000000000000000000000000000000000000000000000007bffffffffffffffffffffffffffffffffffffffffffffffffffffffff1916827bffffffffffffffffffffffffffffffffffffffffffffffffffffffff1916149050919050565b60008073ffffffffffffffffffffffffffffffffffffffff166002600084815260200190815260200160002060009054906101000a900473ffffffffffffffffffffffffffffffffffffffff1673ffffffffffffffffffffffffffffffffffffffff1614159050919050565b600033905090565b816004600083815260200190815260200160002060006101000a81548173ffffffffffffffffffffffffffffffffffffffff021916908373ffffffffffffffffffffffffffffffffffffffff160217905550808273ffffffffffffffffffffffffffffffffffffffff166112aa8361086e565b73ffffffffffffffffffffffffffffffffffffffff167f8c5be1e5ebec7d5bd14f71427d1e84f3dd0314c0f7b2291e5b200ac8c7c3b92560405160405180910390a45050565b60006112fb826111c3565b61133a576040517f08c379a0000000000000000000000000000000000000000000000000000000008152600401611331906125d4565b60405180910390fd5b60006113458361086e565b90508073ffffffffffffffffffffffffffffffffffffffff168473ffffffffffffffffffffffffffffffffffffffff1614806113b457508373ffffffffffffffffffffffffffffffffffffffff1661139c84610651565b73ffffffffffffffffffffffffffffffffffffffff16145b806113c557506113c481856110c5565b5b91505092915050565b8273ffffffffffffffffffffffffffffffffffffffff166113ee8261086e565b73ffffffffffffffffffffffffffffffffffffffff1614611444576040517f08c379a000000000000000000000000000000000000000000000000000000000815260040161143b90612694565b60405180910390fd5b600073ffffffffffffffffffffffffffffffffffffffff168273ffffffffffffffffffffffffffffffffffffffff1614156114b4576040517f08c379a00000000000000000000000000000000000000000000000000000000081526004016114ab90612594565b60405180910390fd5b6114bf838383611a18565b6114ca600082611237565b6001600360008573ffffffffffffffffffffffffffffffffffffffff1673ffffffffffffffffffffffffffffffffffffffff168152602001908152602001600020600082825461151a91906128b9565b925050819055506001600360008473ffffffffffffffffffffffffffffffffffffffff1673ffffffffffffffffffffffffffffffffffffffff16815260200190815260200160002060008282546115719190612832565b92505081905550816002600083815260200190815260200160002060006101000a81548173ffffffffffffffffffffffffffffffffffffffff021916908373ffffffffffffffffffffffffffffffffffffffff160217905550808273ffffffffffffffffffffffffffffffffffffffff168473ffffffffffffffffffffffffffffffffffffffff167fddf252ad1be2c89b69c2b068fc378daa952ba7f163c4a11628f55a4df523b3ef60405160405180910390a4505050565b600073ffffffffffffffffffffffffffffffffffffffff168273ffffffffffffffffffffffffffffffffffffffff16141561169a576040517f08c379a000000000000000000000000000000000000000000000000000000000815260040161169190612654565b60405180910390fd5b6116a3816111c3565b156116e3576040517f08c379a00000000000000000000000000000000000000000000000000000000081526004016116da90612574565b60405180910390fd5b6116ef60008383611a18565b6001600360008473ffffffffffffffffffffffffffffffffffffffff1673ffffffffffffffffffffffffffffffffffffffff168152602001908152602001600020600082825461173f9190612832565b92505081905550816002600083815260200190815260200160002060006101000a81548173ffffffffffffffffffffffffffffffffffffffff021916908373ffffffffffffffffffffffffffffffffffffffff160217905550808273ffffffffffffffffffffffffffffffffffffffff16600073ffffffffffffffffffffffffffffffffffffffff167fddf252ad1be2c89b69c2b068fc378daa952ba7f163c4a11628f55a4df523b3ef60405160405180910390a45050565b6118038484846113ce565b61180f84848484611a1d565b61184e576040517f08c379a000000000000000000000000000000000000000000000000000000000815260040161184590612554565b60405180910390fd5b50505050565b606060405180602001604052806000815250905090565b606060008214156118b3576040518060400160405280600181526020017f30000000000000000000000000000000000000000000000000000000000000008152509050611a13565b600082905060005b600082146118e55780806118ce90612a06565b915050600a826118de9190612888565b91506118bb565b60008167ffffffffffffffff811115611927577f4e487b7100000000000000000000000000000000000000000000000000000000600052604160045260246000fd5b6040519080825280601f01601f1916602001820160405280156119595781602001600182028036833780820191505090505b5090505b60008514611a0c5760018261197291906128b9565b9150600a856119819190612a4f565b603061198d9190612832565b60f81b8183815181106119c9577f4e487b7100000000000000000000000000000000000000000000000000000000600052603260045260246000fd5b60200101907effffffffffffffffffffffffffffffffffffffffffffffffffffffffffffff1916908160001a905350600a85611a059190612888565b945061195d565b8093505050505b919050565b505050565b6000611a3e8473ffffffffffffffffffffffffffffffffffffffff16611bb4565b15611ba7578373ffffffffffffffffffffffffffffffffffffffff1663150b7a02611a6761122f565b8786866040518563ffffffff1660e01b8152600401611a89949392919061242c565b602060405180830381600087803b158015611aa357600080fd5b505af1925050508015611ad457506040513d601f19601f82011682018060405250810190611ad19190611f73565b60015b611b57573d8060008114611b04576040519150601f19603f3d011682016040523d82523d6000602084013e611b09565b606091505b50600081511415611b4f576040517f08c379a0000000000000000000000000000000000000000000000000000000008152600401611b4690612554565b60405180910390fd5b805181602001fd5b63150b7a0260e01b7bffffffffffffffffffffffffffffffffffffffffffffffffffffffff1916817bffffffffffffffffffffffffffffffffffffffffffffffffffffffff191614915050611bac565b600190505b949350505050565b600080823b905060008111915050919050565b828054611bd3906129a3565b90600052602060002090601f016020900481019282611bf55760008555611c3c565b82601f10611c0e57805160ff1916838001178555611c3c565b82800160010185558215611c3c579182015b82811115611c3b578251825591602001919060010190611c20565b5b509050611c499190611c4d565b5090565b5b80821115611c66576000816000905550600101611c4e565b5090565b6000611c7d611c7884612754565b61272f565b905082815260208101848484011115611c9557600080fd5b611ca0848285612961565b509392505050565b6000611cbb611cb684612785565b61272f565b905082815260208101848484011115611cd357600080fd5b611cde848285612961565b509392505050565b600081359050611cf581612f2d565b92915050565b600081359050611d0a81612f44565b92915050565b600081359050611d1f81612f5b565b92915050565b600081519050611d3481612f5b565b92915050565b600082601f830112611d4b57600080fd5b8135611d5b848260208601611c6a565b91505092915050565b600082601f830112611d7557600080fd5b8135611d85848260208601611ca8565b91505092915050565b600081359050611d9d81612f72565b92915050565b600060208284031215611db557600080fd5b6000611dc384828501611ce6565b91505092915050565b60008060408385031215611ddf57600080fd5b6000611ded85828601611ce6565b9250506020611dfe85828601611ce6565b9150509250929050565b600080600060608486031215611e1d57600080fd5b6000611e2b86828701611ce6565b9350506020611e3c86828701611ce6565b9250506040611e4d86828701611d8e565b9150509250925092565b60008060008060808587031215611e6d57600080fd5b6000611e7b87828801611ce6565b9450506020611e8c87828801611ce6565b9350506040611e9d87828801611d8e565b925050606085013567ffffffffffffffff811115611eba57600080fd5b611ec687828801611d3a565b91505092959194509250565b60008060408385031215611ee557600080fd5b6000611ef385828601611ce6565b9250506020611f0485828601611cfb565b9150509250929050565b60008060408385031215611f2157600080fd5b6000611f2f85828601611ce6565b9250506020611f4085828601611d8e565b9150509250929050565b600060208284031215611f5c57600080fd5b6000611f6a84828501611d10565b91505092915050565b600060208284031215611f8557600080fd5b6000611f9384828501611d25565b91505092915050565b60008060008060008060c08789031215611fb557600080fd5b600087013567ffffffffffffffff811115611fcf57600080fd5b611fdb89828a01611d64565b965050602087013567ffffffffffffffff811115611ff857600080fd5b61200489828a01611d64565b955050604087013567ffffffffffffffff81111561202157600080fd5b61202d89828a01611d64565b945050606061203e89828a01611d8e565b935050608061204f89828a01611d8e565b92505060a087013567ffffffffffffffff81111561206c57600080fd5b61207889828a01611d64565b9150509295509295509295565b60006020828403121561209757600080fd5b60006120a584828501611d8e565b91505092915050565b60006120ba83836123cf565b60208301905092915050565b6120cf816128ed565b82525050565b60006120e0826127c6565b6120ea81856127f4565b93506120f5836127b6565b8060005b8381101561212657815161210d88826120ae565b9750612118836127e7565b9250506001810190506120f9565b5085935050505092915050565b61213c816128ff565b82525050565b600061214d826127d1565b6121578185612805565b9350612167818560208601612970565b61217081612b3c565b840191505092915050565b6000612186826127dc565b6121908185612816565b93506121a0818560208601612970565b6121a981612b3c565b840191505092915050565b60006121bf826127dc565b6121c98185612827565b93506121d9818560208601612970565b80840191505092915050565b60006121f2603283612816565b91506121fd82612b4d565b604082019050919050565b6000612215601c83612816565b915061222082612b9c565b602082019050919050565b6000612238602483612816565b915061224382612bc5565b604082019050919050565b600061225b601983612816565b915061226682612c14565b602082019050919050565b600061227e602c83612816565b915061228982612c3d565b604082019050919050565b60006122a1603883612816565b91506122ac82612c8c565b604082019050919050565b60006122c4602a83612816565b91506122cf82612cdb565b604082019050919050565b60006122e7602983612816565b91506122f282612d2a565b604082019050919050565b600061230a602083612816565b915061231582612d79565b602082019050919050565b600061232d602c83612816565b915061233882612da2565b604082019050919050565b6000612350602983612816565b915061235b82612df1565b604082019050919050565b6000612373602f83612816565b915061237e82612e40565b604082019050919050565b6000612396602183612816565b91506123a182612e8f565b604082019050919050565b60006123b9603183612816565b91506123c482612ede565b604082019050919050565b6123d881612957565b82525050565b6123e781612957565b82525050565b60006123f982856121b4565b915061240582846121b4565b91508190509392505050565b600060208201905061242660008301846120c6565b92915050565b600060808201905061244160008301876120c6565b61244e60208301866120c6565b61245b60408301856123de565b818103606083015261246d8184612142565b905095945050505050565b6000602082019050818103600083015261249281846120d5565b905092915050565b60006020820190506124af6000830184612133565b92915050565b600060208201905081810360008301526124cf818461217b565b905092915050565b600060c08201905081810360008301526124f1818961217b565b90508181036020830152612505818861217b565b90508181036040830152612519818761217b565b905061252860608301866123de565b61253560808301856123de565b81810360a0830152612547818461217b565b9050979650505050505050565b6000602082019050818103600083015261256d816121e5565b9050919050565b6000602082019050818103600083015261258d81612208565b9050919050565b600060208201905081810360008301526125ad8161222b565b9050919050565b600060208201905081810360008301526125cd8161224e565b9050919050565b600060208201905081810360008301526125ed81612271565b9050919050565b6000602082019050818103600083015261260d81612294565b9050919050565b6000602082019050818103600083015261262d816122b7565b9050919050565b6000602082019050818103600083015261264d816122da565b9050919050565b6000602082019050818103600083015261266d816122fd565b9050919050565b6000602082019050818103600083015261268d81612320565b9050919050565b600060208201905081810360008301526126ad81612343565b9050919050565b600060208201905081810360008301526126cd81612366565b9050919050565b600060208201905081810360008301526126ed81612389565b9050919050565b6000602082019050818103600083015261270d816123ac565b9050919050565b600060208201905061272960008301846123de565b92915050565b600061273961274a565b905061274582826129d5565b919050565b6000604051905090565b600067ffffffffffffffff82111561276f5761276e612b0d565b5b61277882612b3c565b9050602081019050919050565b600067ffffffffffffffff8211156127a05761279f612b0d565b5b6127a982612b3c565b9050602081019050919050565b6000819050602082019050919050565b600081519050919050565b600081519050919050565b600081519050919050565b6000602082019050919050565b600082825260208201905092915050565b600082825260208201905092915050565b600082825260208201905092915050565b600081905092915050565b600061283d82612957565b915061284883612957565b9250827fffffffffffffffffffffffffffffffffffffffffffffffffffffffffffffffff0382111561287d5761287c612a80565b5b828201905092915050565b600061289382612957565b915061289e83612957565b9250826128ae576128ad612aaf565b5b828204905092915050565b60006128c482612957565b91506128cf83612957565b9250828210156128e2576128e1612a80565b5b828203905092915050565b60006128f882612937565b9050919050565b60008115159050919050565b60007fffffffff0000000000000000000000000000000000000000000000000000000082169050919050565b600073ffffffffffffffffffffffffffffffffffffffff82169050919050565b6000819050919050565b82818337600083830152505050565b60005b8381101561298e578082015181840152602081019050612973565b8381111561299d576000848401525b50505050565b600060028204905060018216806129bb57607f821691505b602082108114156129cf576129ce612ade565b5b50919050565b6129de82612b3c565b810181811067ffffffffffffffff821117156129fd576129fc612b0d565b5b80604052505050565b6000612a1182612957565b91507fffffffffffffffffffffffffffffffffffffffffffffffffffffffffffffffff821415612a4457612a43612a80565b5b600182019050919050565b6000612a5a82612957565b9150612a6583612957565b925082612a7557612a74612aaf565b5b828206905092915050565b7f4e487b7100000000000000000000000000000000000000000000000000000000600052601160045260246000fd5b7f4e487b7100000000000000000000000000000000000000000000000000000000600052601260045260246000fd5b7f4e487b7100000000000000000000000000000000000000000000000000000000600052602260045260246000fd5b7f4e487b7100000000000000000000000000000000000000000000000000000000600052604160045260246000fd5b6000601f19601f8301169050919050565b7f4552433732313a207472616e7366657220746f206e6f6e20455243373231526560008201527f63656976657220696d706c656d656e7465720000000000000000000000000000602082015250565b7f4552433732313a20746f6b656e20616c7265616479206d696e74656400000000600082015250565b7f4552433732313a207472616e7366657220746f20746865207a65726f2061646460008201527f7265737300000000000000000000000000000000000000000000000000000000602082015250565b7f4552433732313a20617070726f766520746f2063616c6c657200000000000000600082015250565b7f4552433732313a206f70657261746f7220717565727920666f72206e6f6e657860008201527f697374656e7420746f6b656e0000000000000000000000000000000000000000602082015250565b7f4552433732313a20617070726f76652063616c6c6572206973206e6f74206f7760008201527f6e6572206e6f7220617070726f76656420666f7220616c6c0000000000000000602082015250565b7f4552433732313a2062616c616e636520717565727920666f7220746865207a6560008201527f726f206164647265737300000000000000000000000000000000000000000000602082015250565b7f4552433732313a206f776e657220717565727920666f72206e6f6e657869737460008201527f656e7420746f6b656e0000000000000000000000000000000000000000000000602082015250565b7f4552433732313a206d696e7420746f20746865207a65726f2061646472657373600082015250565b7f4552433732313a20617070726f76656420717565727920666f72206e6f6e657860008201527f697374656e7420746f6b656e0000000000000000000000000000000000000000602082015250565b7f4552433732313a207472616e73666572206f6620746f6b656e2074686174206960008201527f73206e6f74206f776e0000000000000000000000000000000000000000000000602082015250565b7f4552433732314d657461646174613a2055524920717565727920666f72206e6f60008201527f6e6578697374656e7420746f6b656e0000000000000000000000000000000000602082015250565b7f4552433732313a20617070726f76616c20746f2063757272656e74206f776e6560008201527f7200000000000000000000000000000000000000000000000000000000000000602082015250565b7f4552433732313a207472616e736665722063616c6c6572206973206e6f74206f60008201527f776e6572206e6f7220617070726f766564000000000000000000000000000000602082015250565b612f36816128ed565b8114612f4157600080fd5b50565b612f4d816128ff565b8114612f5857600080fd5b50565b612f648161290b565b8114612f6f57600080fd5b50565b612f7b81612957565b8114612f8657600080fd5b5056fea2646970667358221220e9f02562609f656402a7c4e8b33f4d11fb0567aa7cd2d22899335157c4ceae1e64736f6c63430008040033",
  "immutableReferences": {},
  "source": "pragma solidity 0.8.4;\n\nimport \"@openzeppelin/contracts/token/ERC721/ERC721.sol\";\n\ncontract Card is ERC721{\n\n     struct Creature{\n        string name;\n        string bio;\n        string imageURI;\n        uint attackPoints;\n        uint defensePoints;\n        string specialMove;\n    }\n\n    uint public _id=0;\n    Creature[] public creatures;\n    mapping (uint => address) owners;\n\n   \n\n    constructor() ERC721('Card',\"CARD\") {\n    }\n\n\n    function mint(\n    string memory name, \n    string memory bio,\n    string memory imageURI,\n    uint attackPoints,\n    uint defensePoints,\n    string memory specialMove) \n    public {\n        Creature memory what = Creature(name,bio,imageURI,attackPoints,defensePoints,specialMove);\n        creatures.push(what);\n        _mint(msg.sender, _id);\n        owners[_id]=msg.sender;\n        _id=_id+1;\n    }\n    \n    function getTokensByAddress(address to) public view returns(uint [] memory){\n        uint balance= ERC721.balanceOf(to);\n        uint[] memory tokensFromAddress= new uint[] (balance);\n        uint x=0;\n        for(uint i=0;i<_id;i++){\n            if(ownerOf(i)==to){\n                tokensFromAddress[x]=i;\n                x++;\n            }\n        }\n        return tokensFromAddress;\n    }\n    \n\n}\n\n",
  "sourcePath": "/Users/kiranmanicka/Documents/NFT/src/contracts/Card.sol",
  "compiler": {
    "name": "solc",
    "version": "0.8.4+commit.c7e474f2.Emscripten.clang"
  },
  "schemaVersion": "3.4.1",
  "updatedAt": "2021-07-22T17:19:47.853Z",
  "networkType": "ethereum",
  "devdoc": {
    "kind": "dev",
    "methods": {
      "approve(address,uint256)": {
        "details": "See {IERC721-approve}."
      },
      "balanceOf(address)": {
        "details": "See {IERC721-balanceOf}."
      },
      "getApproved(uint256)": {
        "details": "See {IERC721-getApproved}."
      },
      "isApprovedForAll(address,address)": {
        "details": "See {IERC721-isApprovedForAll}."
      },
      "name()": {
        "details": "See {IERC721Metadata-name}."
      },
      "ownerOf(uint256)": {
        "details": "See {IERC721-ownerOf}."
      },
      "safeTransferFrom(address,address,uint256)": {
        "details": "See {IERC721-safeTransferFrom}."
      },
      "safeTransferFrom(address,address,uint256,bytes)": {
        "details": "See {IERC721-safeTransferFrom}."
      },
      "setApprovalForAll(address,bool)": {
        "details": "See {IERC721-setApprovalForAll}."
      },
      "supportsInterface(bytes4)": {
        "details": "See {IERC165-supportsInterface}."
      },
      "symbol()": {
        "details": "See {IERC721Metadata-symbol}."
      },
      "tokenURI(uint256)": {
        "details": "See {IERC721Metadata-tokenURI}."
      },
      "transferFrom(address,address,uint256)": {
        "details": "See {IERC721-transferFrom}."
      }
    },
    "version": 1
  },
  "userdoc": {
    "kind": "user",
    "methods": {},
    "version": 1
  }
}